S01800004763634170706C69636174696F6E31322E7372656328
S11300000C9434000C9451000C9451000C94510045
S11300100C9451000C9451000C9451000C94510018
S11300200C9451000C9451000C9451000C94510008
S11300300C9451000C9451000C9451000C945100F8
S11300400C9451000C9451000C9451000C945100E8
S11300500C9451000C9451000C9451000C945100D8
S11300600C9451000C94510011241FBECFEFD8E022
S1130070DEBFCDBF11E0A0E0B1E0E8EEF5E002C0E4
S113008005900D92A234B107D9F721E0A2E4B1E0C2
S113009001C01D92AE34B207E1F70E9477000C94C0
S11300A0F2020C9400008FEF8093420108950E94A5
S11300B0ED02809342018F3FB9F0813051F028F076
S11300C0823059F0833069F00FC080E00E943E0214
S11300D00BC081E00E943E0207C082E00E943E0203
S11300E003C083E00E943E020E94E8020895109239
S11300F046010E945F010E9438020E945300C1E041
S11301000E94330280914601813039F018F0853025
S113011038F409C00E94570006C00E94E80203C0D8
S1130120C0934601EDCF809146018F5F80934601D5
S1130130853030F310924601E3CF70E0FB01E25DBD
S1130140FE4F2081813031F018F0823029F005C053
S113015095B103C098B101C09BB1413069F4E82F57
S1130160F0E0EE0FFF1FE050FF4F0190F081E02D13
S11301708181822B81830895411114C0E82FF0E01E
S1130180EE0FFF1FE050FF4F0190F081E02D8181C1
S1130190DB01AA5DBE4F9C91982391839281822FAB
S11301A0892B82830895411114C0E82FF0E0EE0FEB
S11301B0FF1FE050FF4FA081B18112969C911297CE
S11301C0E62FF0E0EA5DFE4F8081892312968C933E
S11301D00895E82FF0E0EE0FFF1FE050FF4FA081DD
S11301E0B18112969C911297E62FF0E0E25DFE4FEA
S11301F08081892B12968C930895E82FF0E0EE0FFE
S1130200FF1FE050FF4F0190F081E02D9081E62F19
S1130210F0E0E25DFE4F8081982381E009F480E004
S11302200895FB015C9847E050E0208130E0042E03
S113023002C0359527950A94E2F720FF02C0289A58
S113024001C028985F9A5F984150510970F727E0E0
S113025030E0E82FF0E0EA5CFE4F408150E0CA0154
S1130260022E02C0959587950A94E2F780FF02C09A
S1130270289A01C028985F9A5F982150310978F72D
S11302805C9A089590E0662331F0FC01E95BFE4F2F
S113029021E020830895FC01E95BFE4F108208955C
S11302A0E7E4F1E02BE431E091E0882311F090835E
S11302B001C010823196E217F307B9F708950F933E
S11302C01F93CF93DF93CEE0D1E006E111E041E04C
S11302D0698188810E949D002296C017D107B9F7D1
S11302E0C6E0D1E00EE011E040E0698188810E941F
S11302F09D002296C017D107B9F781E00E945001F2
S1130300549A579A209ADF91CF911F910F91089593
S1130310282F843070F480914B0190E0A0E0B0E08D
S113032004C0B695A795979587952A95D2F78170BD
S1130330089580E008950E9411010895AF92BF923C
S1130340CF92DF92EF92FF920F931F93CF93DF939D
S1130350CEE3D1E00F2EF7E4EF2EF1E0FF2EF02DE7
S11303600EE011E00F2EF2E4CF2EF1E0DF2EF02D9F
S1130370BB24B394A12C8991813059F4F8014B2DFD
S1130380D7018C91811101C04A2D618180810E9425
S1130390D300BFEFEB1AFB0A0E5F1F4FCC15DD0530
S11303A051F7DF91CF911F910F91FF90EF90DF9064
S11303B0CF90BF90AF9008958F929F92AF92BF92CB
S11303C0DF92EF92FF920F931F93CF93DF930F2E41
S11303D0FAE3EF2EF1E0FF2EF02D06E011E0C0E08D
S11303E0D0E0812C912C54018394F70181917F01F9
S11303F0813039F5F801618180810E94FD0081110D
S113040010C0D501C4010C2E04C0880F991FAA1F67
S1130410BB1F0A94D2F720914B01822B80934B018E
S113042010C0D501C4010C2E04C0880F991FAA1F47
S1130430BB1F0A94D2F7809590914B018923809336
S11304404B0121960E5F1F4FC430D10571F6DF9129
S1130450CF911F910F91FF90EF90DF90BF90AF90DD
S11304609F908F9008950E949E010E94DC01089540
S113047084E080934D0110924C010895863010F46D
S113048080934D01089580914D018130F9F030F051
S11304908230E9F1833009F45BC0089581E00E9461
S11304A0500162E271E080E00E949B0163E271E02E
S11304B081E00E949B0164E271E082E00E949B0162
S11304C065E271E083E00E949B01089560E080E0B2
S11304D00E94420161E081E00E94420161E082E009
S11304E00E9442016EE171E080E00E949B016FE195
S11304F071E081E00E949B0160E271E082E00E9471
S11305009B0161E271E083E00E949B01089560E039
S113051080E00E94420160E081E00E94420161E0CB
S113052082E00E9442016AE171E080E00E949B0146
S11305306BE171E081E00E949B016CE171E082E07B
S11305400E949B016DE171E083E00E949B0108958C
S113055060E080E00E94420160E081E00E9442018C
S113056060E082E00E94420166E171E080E00E9466
S11305709B0167E171E081E00E949B0168E171E009
S113058082E00E949B0169E171E083E00E949B018B
S1130590089580E00E948801813011F480934C0119
S11305A081E00E948801813019F482E080934C013B
S11305B082E00E948801813019F483E080934C0129
S11305C083E00E948801813011F410924C01089557
S11305D00E94C9020E94430208950E94C9028091A8
S10B05E04C010895F894FFCFCB
S11305E82300260029000101010201030105000579
S11305F8000400030002C0B0A4C0C0A492C0C0F9A3
S1130608A4C0FFFFFFFFFEFDFBF7EFDFBF7F010282
S1130618040810204080F1F2F4F8010101010101FD
S10506280101CA
S9030000FC
