S01800004763634170706C69636174696F6E31342E7372656326
S11300000C9434000C9451000C9451000C94510045
S11300100C9451000C9451000C9451000C94510018
S11300200C9451000C9451000C9451000C94510008
S11300300C9451000C9451000C9451000C945100F8
S11300400C9451000C9451000C9451000C945100E8
S11300500C9451000C9451000C9451000C945100D8
S11300600C9451000C94510011241FBECFEFD8E022
S1130070DEBFCDBF11E0A0E0B1E0E4E0F6E002C0F5
S113008005900D92A234B107D9F721E0A2E4B1E0C2
S113009001C01D92AE34B207E1F70E9475000C94C2
S11300A000030C9400008FEF8093420108950E9496
S11300B09502809342018F3FB9F0813051F028F0CE
S11300C0823059F0833069F0089580E00E943C0248
S11300D0089581E00E943C02089582E00E943C025F
S11300E0089583E00E943C020895109246010E9404
S11300F02C010E9436020E945300C1E00E940002BB
S113010080914601813039F018F0853038F409C007
S11301100E94570006C00E94F90203C0C093460122
S1130120EDCF809146018F5F80934601853030F397
S113013010924601E3CF70E0FB01E25DFE4F2081A7
S1130140813031F018F0823029F005C095B103C038
S113015098B101C09BB1413069F4E82FF0E0EE0F93
S1130160FF1FE050FF4F0190F081E02D8181822B31
S113017081830895411114C0E82FF0E0EE0FFF1FB2
S1130180E050FF4F0190F081E02D8181DB01AA5DF9
S1130190BE4F9C91982391839281822F892B8283D5
S11301A00895411114C0E82FF0E0EE0FFF1FE05056
S11301B0FF4FA081B18112969C911297E62FF0E037
S11301C0EA5DFE4F8081892312968C930895E82F6F
S11301D0F0E0EE0FFF1FE050FF4FA081B1811296B7
S11301E09C911297E62FF0E0E25DFE4F8081892B0F
S11301F012968C930895E82FF0E0EE0FFF1FE05065
S1130200FF4F0190F081E02D9081E62FF0E0E25D58
S1130210FE4F8081982381E009F480E0089590E006
S1130220662331F0FC01E95BFE4F21E02083089551
S1130230FC01E95BFE4F10820895E7E4F1E02BE452
S113024031E091E0882311F0908301C0108231964F
S1130250E217F307B9F708950F931F93CF93DF9332
S1130260CEE0D1E006E111E041E0698188810E949D
S11302709B002296C017D107B9F7C6E0D1E00EE083
S113028011E040E0698188810E949B002296C0179A
S1130290D107B9F781E00E941D01549A579A209A18
S11302A0DF91CF911F910F910895282F843070F41E
S11302B080914B0190E0A0E0B0E004C0B695A79512
S11302C0979587952A95D2F78170089580E00895CF
S11302D00E9405020895AF92BF92CF92DF92EF92EF
S11302E0FF920F931F93CF93DF93CAE3D1E00F2EB6
S11302F0F7E4EF2EF1E0FF2EF02D0EE011E00F2ECB
S1130300FEE3CF2EF1E0DF2EF02DBB24B394A12C1D
S11303108991813059F4F8014B2DD7018C918111C9
S113032001C04A2D618180810E94D100BFEFEB1A88
S1130330FB0A0E5F1F4FCC15DD0551F7DF91CF91FE
S11303401F910F91FF90EF90DF90CF90BF90AF90EF
S113035008958F929F92AF92BF92DF92EF92FF9295
S11303600F931F93CF93DF930F2EF6E3EF2EF1E05D
S1130370FF2EF02D06E011E0C0E0D0E0812C912C9E
S113038054018394F70181917F01813039F5F8019B
S1130390618180810E94FB00811110C0D501C401DC
S11303A00C2E04C0880F991FAA1FBB1F0A94D2F7F2
S11303B020914B01822B80934B0110C0D501C401C5
S11303C00C2E04C0880F991FAA1FBB1F0A94D2F7D2
S11303D0809590914B01892380934B0121960E5F68
S11303E01F4FC430D10571F6DF91CF911F910F914A
S11303F0FF90EF90DF90BF90AF909F908F90089503
S11304000E946B010E94A9010895FB015C9847E0DA
S113041050E0208130E0042E02C0359527950A94DF
S1130420E2F720FF02C0289A01C028985F9A5F98DB
S11304304150510970F727E030E0E82FF0E0E25C2A
S1130440FE4F408150E0CA01022E02C09595879567
S11304500A94E2F780FF02C0289A01C028985F9AA4
S11304605F982150310978F75C9A089584E080936D
S11304704D0110924C010895863010F480934D0183
S1130480089580914D01813051F028F08230A1F01F
S11304908330F9F0089581E00E941D01089560E021
S11304A080E00E940F0161E081E00E940F0161E0A1
S11304B082E00E940F01089560E080E00E940F0135
S11304C060E081E00E940F0161E082E00E940F0180
S11304D0089560E080E00E940F0160E081E00E94E6
S11304E00F0160E082E00E940F01089580E00E9405
S11304F05501813011F480934C0181E00E94550133
S1130500813019F482E080934C0182E00E9455010D
S1130510813019F483E080934C0183E00E945501FB
S1130520813011F410924C0108950E94760280915A
S11305304C01089580914D018130E1F030F082301A
S113054071F1833009F440C0089562E271E080E003
S11305500E94680163E271E081E00E94680164E244
S113056071E082E00E94680165E271E083E00E942C
S1130570680108956EE171E080E00E9468016FE116
S113058071E081E00E94680160E271E082E00E9413
S1130590680161E271E083E00E94680108956AE104
S11305A071E080E00E9468016BE171E081E00E94EB
S11305B068016CE171E082E00E9468016DE171E024
S11305C083E00E946801089566E171E080E00E9482
S11305D0680167E171E081E00E94680168E171E00F
S11305E082E00E94680169E171E083E00E94680191
S11305F008950E9476020E9441020E949A02089580
S1070600F894FFCF98
S1130604230026002900010101020103010500055C
S1130614000400030002C0B0A4C0C0A492C0C0F986
S1130624A4C0C0C0C0C0FEFDFBF7EFDFBF7F010262
S11306340408102040800101010101010101F1F2CB
S1050644F4F8C4
S9030000FC
