:100000000C9434000C9451000C9451000C94510049
:100010000C9451000C9451000C9451000C9451001C
:100020000C9451000C9451000C9451000C9451000C
:100030000C9451000C9436070C9451000C94510010
:100040000C9451000C9451000C9451000C945100EC
:100050000C9451000C9451000C9451000C945100DC
:100060000C9451000C94510011241FBECFEFD8E026
:10007000DEBFCDBF11E0A0E0B1E0E6EFFEE002C0E0
:1000800005900D92AA36B107D9F721E0AAE6B1E0B2
:1000900001C01D92AA3EB207E1F70E94F1000C9444
:1000A00079070C9400008FEF80936B0184E18093BB
:1000B0006D0110926F0180E00E94E20510926E01C6
:1000C00010926C010895CF930E947305C82F8093FE
:1000D0006B018F3F09F460C0813071F1A8F082306C
:1000E00009F442C0833009F057C083E00E941E0526
:1000F00082E00E94930188E893E10E94EE0381E090
:100100000E94E20524E13EC080E00E941E0583E0DB
:100110000E94930180EA9FE00E94EE0381E00E942A
:10012000E20520E040E060E085E00E941B071092BD
:100130006E0110926C0130C081E00E941E0580E0CB
:100140000E94930180ED97E00E94EE0381E00E94FF
:10015000E2052AE040E060E085E00E941B07C093D2
:100160006E01C0936C0118C082E00E941E0581E000
:100170000E94930188EB9BE00E94EE0381E00E94C5
:10018000E2052FE040E060E085E00E941B0781E08F
:1001900080936E0180936C010E94D10580916E0165
:1001A0008130E9F485E00E942D0780916C0188235D
:1001B00089F082E00E94E20510926C0185E00E94C5
:1001C0002D0781110CC085E00E941E0583E0CF91B0
:1001D0000C94930185E00E942D07882351F3CF9161
:1001E0000895109270011092800010928100809109
:1001F000810085608093810084E294EF9093850074
:100200008093840080916F00816080936F00789468
:100210000E9496010E94A2020E947F030E9418057C
:100220000E94DB060E94D7050E94B7060E94480183
:100230000E9453000E94F1060E9475048091700193
:10024000823091F038F4882351F08130A9F40E9473
:10025000630014C0833069F0843081F00DC00E94C7
:1002600097060E94E5040AC00E94B7010E94BE06DC
:1002700005C00E944E0102C0109270018091700171
:100280008F5F809370018530A8F210927001D2CFF9
:100290001092720183E0809371010895EF92FF92B2
:1002A0000F931F93CF93DF93E091710184E0E89F58
:1002B000F0011124EA5DFE4FE080F180028113819C
:1002C00081E00E94CD06EC0180917101833049F4F8
:1002D00061E0DF91CF911F910F91FF90EF900C940F
:1002E000660380917201882319F0813061F014C097
:1002F00061E083E00E946603EC16FD0668F081E091
:100300008093720109C060E083E00E946603C01719
:10031000D10710F010927201DF91CF911F910F91D0
:10032000FF90EF900895809371010895CF93DF932C
:1003300010927F011092800110927E00E3E7F1E0BD
:10034000CCE3D1E0A6E3B1E0119211928991813022
:1003500031F490917E008C91892B80937E001196D0
:1003600081E0EF37F80781F7DF91CF910895209171
:100370007F01223061F128F4222341F02130E9F09D
:1003800059C02330A9F12430D9F154C080918101A2
:100390008F5F863018F48093810102C01092810132
:1003A000E0918101F0E0E45CFE4F8081813009F052
:1003B00043C080937F0182E305C080918001882340
:1003C00021F0815080938001089582E016C09091C1
:1003D0007C0080918101892B80937C0087E8809349
:1003E0007A0080917A00806480937A0083E005C06F
:1003F00080917A0086FD20C084E080937F0108957B
:1004000020917C0025FF03C08091790090E020912D
:100410007C0025FD06C0809178002091790090E055
:10042000922BE0918101F0E0EE0FFF1FED58FE4F9F
:100430009183808310927F01089590917C009F7733
:1004400090937C0090917C00906490937C0082302B
:1004500038F481110DC080917C00806280937C0013
:10046000623068F480917A00611106C08F7D05C00A
:1004700080917C008F7DF2CF806280937A00089516
:10048000863048F4E82FF0E0EE0FFF1FED58FE4FE6
:1004900080819181089580E090E008959B012D5620
:1004A0003740273C310578F4813051F030F082300C
:1004B00051F492E29093B10006C092E295BD03C060
:1004C00092E2909381009B0125553B40273C3105EA
:1004D00078F4813051F030F0823051F493E290930F
:1004E000B10006C093E295BD03C093E290938100F2
:1004F0009B012D533F40273C310570F4813049F07A
:1005000028F0823049F48093B10006C092E095BD96
:1005100003C092E09093810065527341673C71057E
:1005200080F4813039F018F0823041F0089585E28E
:1005300085BD089585E280938100089585E28093CA
:10054000B1000895CF93DF93539AC0EBD0E081E3DD
:10055000888360EA7FE082E00E944E021C82DF9185
:10056000CF910895653608F064E6823001F128F4F1
:10057000882349F0813089F00895843071F110F1B9
:100580008530B1F108952FEF629FC001112464E618
:1005900070E00E94510767BD08952FEF629FC00170
:1005A000112464E670E00E94510768BD08952FEFA2
:1005B000629FC001112464E670E00E9451076093BD
:1005C000890008952FEF629FC001112464E670E056
:1005D0000E94510760938B0008952FEF629FC00126
:1005E000112464E670E00E9451076093B3000895FF
:1005F0002FEF629FC001112464E670E00E94510752
:100600006093B400089570E0FB01E65BFE4F20812B
:10061000813039F020F0823029F49BB103C095B1CC
:1006200001C098B1413071F4E82FF0E0EE0FFF1FE8
:10063000E050FF4F0190F081E02D9181822F892BB6
:1006400081830895411114C0E82FF0E0EE0FFF1FE1
:10065000E050FF4F0190F081E02D8181DB01AE5B26
:10066000BE4F9C91982391839281822F892B828304
:10067000089590E070E0880F991FFC01E050FF4F53
:100680000190F081E02D9281DB01411105C0AE5B4C
:10069000BE4F8C91892304C0A65BBE4F8C91892BE1
:1006A00082830895E82FF0E0EE0FFF1FE050FF4F28
:1006B0000190F081E02D9081E62FF0E0E65BFE4FA7
:1006C0008081982381E009F480E00895E82FF0E02C
:1006D000ED57FE4F662319F081E080830895108264
:1006E0000895E3E8F1E091E0882311F0908301C0E0
:1006F0001082319621E0E738F207B1F70895CF93E1
:10070000DF93CEE0D1E041E0698188810E9403035C
:10071000229621E0C631D207B1F7C6E0D1E040E031
:10072000698188810E940303229681E0CE30D80738
:10073000B1F781E00E947103549A579A209A60E0C1
:1007400081E00E941D0210929F0185E0809382014A
:1007500048E551E083E991E0C7EAD1E0A0EAB1E0E1
:10076000FA012191AF01213031F4FC011182108294
:10077000198218821C92029622961196F1E04E354B
:100780005F0771F7DF91CF910895282F843070F4BF
:100790008091A60190E0A0E0B0E004C0B695A795D6
:1007A000979587952A95D2F78170089580E00895EE
:1007B0000C94E704863048F4E82FF0E0EE0FFF1FBA
:1007C000ED56FE4F8081918108950895882311F0A0
:1007D00062E301C060E085E00C94B202803D27E056
:1007E000920720F0BC0182E00C944E020895EF9233
:1007F000FF920F931F93CF93DF9302E611E083E8FC
:10080000E82E81E0F82ECEE0D1E0F80181918F0151
:10081000813051F441E0F7018081811101C040E055
:10082000698188810E943903FFEFEF1AFF0A22963F
:1008300081E00636180749F7DF91CF911F910F919C
:10084000FF90EF9008958F929F92AF92BF92DF92A8
:10085000EF92FF920F931F93CF93DF930EE511E07A
:1008600086E0E82E81E0F82EC0E0D0E0812C912CCB
:1008700054018394F80181918F01813019F5F701BA
:10088000618180810E9452032091A60181110CC0D8
:10089000D501C4010C2E04C0880F991FAA1FBB1FCD
:1008A0000A94D2F7822B0CC0D501C4010C2E04C0CF
:1008B000880F991FAA1FBB1F0A94D2F78095822325
:1008C0008093A6012196F2E0EF0EF11CC430D10511
:1008D00089F6DF91CF911F910F91FF90EF90DF90FC
:1008E000BF90AF909F908F9008950E94F7030C9453
:1008F0002304CF93DF9380919F01813019F08330DF
:1009000031F058C060E081E00E941D0253C0809128
:10091000820190E0FC01E85AFE4F2081213009F06D
:100920003FC0FC01E056FE4F2081EC01CC0FDD1FE3
:10093000283028F5FC01EE5AFE4F80810E944002CB
:10094000C957DE4F99838883E0918201F0E0CF019F
:10095000880F991FDC01A955BE4FEC01C957DE4F26
:100960002D913C91119788819981820F931F8D93CE
:100970009C93E056FE4F80818F5F808311C0DE0123
:10098000AD56BE4FC955DE4F8881998123E09695BB
:1009900087952A95E1F78D939C931982188210828E
:1009A000809182018F5F863018F48093820102C0AB
:1009B0001092820180919F018F5F843008F081E066
:1009C00080939F01DF91CF9108950C9479045C98F6
:1009D00047E050E0FB01208130E0042E02C0359555
:1009E00027950A94E2F720FF02C0289A01C02898B0
:1009F0005F9A5F984150510968F727E030E0E82F8F
:100A0000F0E0EA59FE4F808190E0AC01022E02C076
:100A1000559547950A94E2F740FF02C0289A01C015
:100A200028985F9A5F982150310978F75C9A089569
:100A300084E08093B4011092B3010895863010F4DD
:100A40008093B40108958091B401823099F028F424
:100A5000882339F0813041F008958330A9F0843043
:100A6000F9F481E00C94710360E080E00E94660379
:100A700061E005C060E080E00E94660360E081E024
:100A80000E94660361E009C060E080E00E946603A6
:100A900060E081E00E94660360E082E00C946603FF
:100AA00008958AEA8093B30180E00E94C5038130F3
:100AB00011F48093B30181E00E94C503813019F4E1
:100AC00082E08093B30182E00E94C503813019F473
:100AD00083E08093B30183E00E94C503813011F469
:100AE0001092B30108950E9451058091B3010895B9
:100AF0008091B401823079F128F4882341F081306B
:100B0000C1F008958330C9F1843009F0089562E29C
:100B100071E080E00E94D80363E271E081E00E940E
:100B2000D80364E271E082E00E94D80365E271E0DC
:100B300035C06EE171E080E00E94D8036FE171E0A2
:100B400081E00E94D80360E271E082E00E94D80355
:100B500061E271E023C06AE171E080E00E94D803A5
:100B60006BE171E081E00E94D8036CE171E082E00A
:100B70000E94D8036DE171E011C066E171E080E090
:100B80000E94D80367E171E081E00E94D80368E128
:100B900071E082E00E94D80369E171E083E00C9487
:100BA000D8030E9451050E9423050C94780583E028
:100BB0008093B5011092B7011092B80181E0809343
:100BC000B6010895843008F083E08093B50108955C
:100BD00088E893E10E94EE038091B701823071F1C1
:100BE00028F4882359F08130B1F05CC0843009F4D6
:100BF0003FC088F1853009F44BC054C081E00E94A9
:100C0000E60321E040E060E082E00E941B0781E013
:100C10008093B701089582E00E942D0781110CC0D6
:100C200021E040E060E082E00E941B0782E08093C8
:100C3000B70180E00E94E60381E0089582E00E940F
:100C40002D078111F9CF21E040E060E082E00E94B1
:100C50001B0783E019C082E00E942D078111ECCFB1
:100C600021E040E060E082E00E941B0784E0DFCFEB
:100C700082E00E942D078111DFCF21E040E060E09B
:100C800082E00E941B0785E08093B70181E0D2CF0C
:100C900082E00E942D078111CFCF1092B7010E94F0
:100CA000E60302C01092B70180E008958091B80178
:100CB000882319F0813071F014C021E040E060E039
:100CC00083E00E941B0781E00E94E60381E080939D
:100CD000B801089583E00E942D07811106C00E948B
:100CE000E6031092B80180E0089581E008958091B4
:100CF000B601882371F0813099F423E040E060E090
:100D000084E00E941B0781E00E94E6031092B60176
:100D10000CC084E00E942D07811107C00E94E603E9
:100D200081E08093B60180E0089581E0089580918C
:100D3000B501813071F028F0823081F0833099F074
:100D400008950E94E805811111C083E08093B501E8
:100D500008950E9456068823C1F308950E947706DD
:100D6000882399F3089580E00C94E6030895E9EB55
:100D7000F1E01182108213821282089585E00E94B0
:100D8000DA0380579E4F9695879596958795C296DC
:100D90009093BC018093BB010895823048F4E82F02
:100DA000F0E0EE0FFF1FE754FE4F80819181089520
:100DB00080E090E00895EFEBF1E010821282118262
:100DC000339681E0EE3CF807C1F7EEECF1E01082DB
:100DD000118212821382349681E0EA3EF807B9F755
:100DE000089580916A01813029F5EEECF1E02BE362
:100DF00080818130C1F483819281882341F08150C8
:100E000083833181932B892B71F410820CC0992339
:100E100019F09150928306C08181882321F081507E
:100E2000818322832383349681E0EA3EF80701F729
:100E300010926A010895873078F494E0899FF00158
:100E40001124E253FE4F1082618342832383242BBB
:100E5000622B11F081E08083089524E0829FC0011D
:100E60001124FC01E253FE4F808108951F920F92DE
:100E70000FB60F9211248F939F9380916A01811175
:100E800009C084E294EF909385008093840081E010
:100E900080936A019F918F910F900FBE0F901F90CA
:100EA000189597FB072E16F4009407D077FD09D00C
:100EB0000E94650707FC05D03EF4909581959F4FF1
:100EC0000895709561957F4F0895AA1BBB1B51E152
:100ED00007C0AA1FBB1FA617B70710F0A61BB70BAA
:100EE000881F991F5A95A9F780959095BC01CD014F
:060EF0000895F894FFCF05
:100EF600230026002900010101020103000100056B
:100F0600000400030002C0B0B0C0C0A480C0C0F995
:100F160090C0C0C0C0C0B400D200FA002C0140018D
:100F26007C010000000001020408102000000000FF
:100F36000001FEFDFBF7EFDFBF7F01020408102072
:100F460040800001020304050000000000010101C9
:0A0F5600010101010101F1F2F4F8BC
:00000001FF
