S01200004C4142345F54494D45522E737265632F
S11300000C9434000C9451000C9451000C94510045
S11300100C9451000C9451000C9451000C94510018
S11300200C9451000C9451000C9451000C94510008
S11300300C9451000C94D6060C9451000C9451006D
S11300400C9451000C9451000C9451000C945100E8
S11300500C9451000C9451000C9451000C945100D8
S11300600C9451000C94510011241FBECFEFD8E022
S1130070DEBFCDBF11E0A0E0B1E0E6E3FEE002C0E8
S113008005900D92AA36B107D9F721E0AAE6B1E0AE
S113009001C01D92A93EB207E1F70E94DB000C9457
S11300A019070C9400008FEF80936B0184E1809317
S11300B06C0110926E0180E00E94860510926D0121
S11300C00895CF930E941705C82F80936B018F3F2B
S11300D009F459C0813059F1A0F08230F1F1833034
S11300E009F051C083E00E94C20482E00E947D01B5
S11300F088E893E10E94920381E00E94860524E14E
S11301003AC080E00E94C20483E00E947D0180EA3C
S11301109FE00E94920381E00E94860520E040E077
S113012060E085E00E94BB0610926D012CC081E066
S11301300E94C20480E00E947D0180ED97E00E944D
S1130140920381E00E9486052AE040E060E085E0B9
S11301500E94BB06C0936D0116C082E00E94C204D7
S113016081E00E947D0188EB9BE00E94920381E084
S11301700E9486052FE040E060E085E00E94BB0617
S113018081E080936D010E94750580916D0181303D
S113019081F485E00E94CD0681110BC085E00E94A8
S11301A0C20483E00E947D0182E00E9486051092D1
S11301B06D01CF91089510926F01109280001092FA
S11301C081008091810085608093810084E294EFB6
S11301D0909385008093840080916F008160809368
S11301E06F0078940E9480010E9438020E942303C9
S11301F00E94BC040E947B060E947B050E94570655
S11302000E9432010E9453000E9491060E94190428
S113021080916F01823091F038F4882351F081305D
S1130220A9F40E94610014C0833069F0843081F025
S11302300DC00E9437060E9489040AC00E94A101D1
S11302400E945E0605C00E94380102C010926F0130
S113025080916F018F5F80936F018530A8F21092B7
S11302606F01D2CF1092710183E0809370010895E1
S1130270EF92FF920F931F93CF93DF93E09170015E
S113028084E0E89FF0011124EA5DFE4FE080F180F4
S11302900281138181E00E946D06EC01809170015E
S11302A0833049F461E0DF91CF911F910F91FF906A
S11302B0EF900C940A0380917101882319F0813026
S11302C061F014C061E083E00E940A03EC16FD06AD
S11302D068F081E08093710109C060E083E00E94CE
S11302E00A03C017D10710F010927101DF91CF916A
S11302F01F910F91FF90EF900895809370010895DE
S1130300CF93DF9310927E0110927F0110927E00B2
S1130310E2E7F1E0CCE3D1E0A6E3B1E0119211927F
S11303208991813031F490917E008C91892B809356
S11303307E00119681E0EE37F80781F7DF91CF91C7
S1130340089520917E01223061F128F4222341F0A6
S11303502130E9F059C02330A9F12430D9F154C037
S1130360809180018F5F863018F48093800102C0F1
S113037010928001E0918001F0E0E45CFE4F808106
S1130380813009F043C080937E0182E305C08091EF
S11303907F01882321F0815080937F01089582E0BA
S11303A016C090917C0080918001892B80937C0001
S11303B087E880937A0080917A00806480937A0041
S11303C083E005C080917A0086FD20C084E080939C
S11303D07E01089520917C0025FF03C0809179005F
S11303E090E020917C0025FD06C08091780020914A
S11303F0790090E0922BE0918001F0E0EE0FFF1F76
S1130400EE58FE4F9183808310927E01089590915F
S11304107C009F7790937C0090917C0090649093F3
S11304207C00823038F481110DC080917C008062A0
S113043080937C00623068F480917A00611106C078
S11304408F7D05C080917C008F7DF2CF8062809388
S11304507A000895863048F4E82FF0E0EE0FFF1F8D
S1130460EE58FE4F80819181089580E090E00895D8
S1130470539AE0EBF0E081E3808382E0818314828D
S113048008956D537F40673C710578F4813039F0ED
S113049018F0823041F0089582E085BD089582E02D
S11304A08093810008958093B1000895653608F023
S11304B064E6823001F128F4882349F0813089F020
S11304C00895843071F110F18530B1F108952FEF62
S11304D0629FC001112464E670E00E94F10667BDCA
S11304E008952FEF629FC001112464E670E00E941A
S11304F0F10668BD08952FEF629FC001112464E6E0
S113050070E00E94F1066093890008952FEF629FC6
S1130510C001112464E670E00E94F10660938B0030
S113052008952FEF629FC001112464E670E00E94D9
S1130530F1066093B30008952FEF629FC001112468
S113054064E670E00E94F1066093B400089570E0E0
S1130550FB01E65BFE4F2081813039F020F08230D0
S113056029F49BB103C095B101C098B1413071F435
S1130570E82FF0E0EE0FFF1FE050FF4F0190F081F5
S1130580E02D9181822F892B81830895411114C01C
S1130590E82FF0E0EE0FFF1FE050FF4F0190F081D5
S11305A0E02D8181DB01AE5BBE4F9C91982391834A
S11305B09281822F892B8283089590E070E0880FC6
S11305C0991FFC01E050FF4F0190F081E02D9281D2
S11305D0DB01411105C0AE5BBE4F8C91892304C081
S11305E0A65BBE4F8C91892B82830895E82FF0E09F
S11305F0EE0FFF1FE050FF4F0190F081E02D90813E
S1130600E62FF0E0E65BFE4F8081982381E009F459
S113061080E00895E82FF0E0EE57FE4F662319F0CE
S113062081E08083089510820895E2E8F1E091E08A
S1130630882311F0908301C01082319621E0E638BE
S1130640F207B1F70895CF93DF93CEE0D1E041E014
S1130650698188810E94A702229621E0C631D207CF
S1130660B1F7C6E0D1E040E0698188810E94A70229
S1130670229681E0CE30D807B1F781E00E941503BD
S1130680549A579A209A60E081E00E9407021092DF
S11306909E0185E08093810148E551E082E991E083
S11306A0C6EAD1E0AFE9B1E0FA012191AF0121300E
S11306B031F4FC0111821082198218821C92029674
S11306C022961196F1E04E355F0771F7DF91CF91D5
S11306D00895282F843070F48091A50190E0A0E063
S11306E0B0E004C0B695A795979587952A95D2F75B
S11306F08170089580E008950C948B04863048F44A
S1130700E82FF0E0EE0FFF1FEE56FE4F808191813F
S113071008950895882311F062E301C060E085E044
S11307200C945602803D27E0920720F0BC0182E041
S11307300C9441020895EF92FF920F931F93CF936D
S1130740DF9302E611E082E8E82E81E0F82ECEE0A5
S1130750D1E0F80181918F01813051F441E0F7013A
S11307608081811101C040E0698188810E94DD029D
S1130770FFEFEF1AFF0A229681E00636180749F7C1
S1130780DF91CF911F910F91FF90EF9008958F9279
S11307909F92AF92BF92DF92EF92FF920F931F93BB
S11307A0CF93DF930EE511E086E0E82E81E0F82E8A
S11307B0C0E0D0E0812C912C54018394F801819104
S11307C08F01813019F5F701618180810E94F60261
S11307D02091A50181110CC0D501C4010C2E04C0C7
S11307E0880F991FAA1FBB1F0A94D2F7822B0CC033
S11307F0D501C4010C2E04C0880F991FAA1FBB1F6A
S11308000A94D2F7809582238093A5012196F2E081
S1130810EF0EF11CC430D10589F6DF91CF911F9101
S11308200F91FF90EF90DF90BF90AF909F908F90CB
S113083008950E949B030C94C703CF93DF93809188
S11308409E01813019F0833031F058C060E081E0BE
S11308500E94070253C08091810190E0FC01E85A94
S1130860FE4F2081213009F03FC0FC01E156FE4FCC
S11308702081EC01CC0FDD1F283028F5FC01EE5A55
S1130880FE4F80810E942A02CA57DE4F99838883D3
S1130890E0918101F0E0CF01880F991FDC01AA5596
S11308A0BE4FEC01CA57DE4F2D913C9111978881C0
S11308B09981820F931F8D939C93E156FE4F808103
S11308C08F5F808311C0DE01AE56BE4FCA55DE4F26
S11308D08881998123E0969587952A95E1F78D93F0
S11308E09C93198218821082809181018F5F8630D7
S11308F018F48093810102C01092810180919E01BD
S11309008F5F843008F081E080939E01DF91CF9166
S113091008950C941D045C9847E050E0FB0120818D
S113092030E0042E02C0359527950A94E2F720FFA3
S113093002C0289A01C028985F9A5F9841505109D3
S113094068F727E030E0E82FF0E0EA59FE4F8081B5
S113095090E0AC01022E02C0559547950A94E2F747
S113096040FF02C0289A01C028985F9A5F982150DE
S1130970310978F75C9A089584E08093B30110926A
S1130980B2010895863010F48093B30108958091E4
S1130990B301823099F028F4882339F0813041F092
S11309A008958330A9F08430F9F481E00C941503A0
S11309B060E080E00E940A0361E005C060E080E03E
S11309C00E940A0360E081E00E940A0361E009C01A
S11309D060E080E00E940A0360E081E00E940A0374
S11309E060E082E00C940A0308958AEA8093B201DD
S11309F080E00E946903813011F48093B20181E0A8
S1130A000E946903813019F482E08093B20182E08C
S1130A100E946903813019F483E08093B20183E07A
S1130A200E946903813011F41092B20108950E946A
S1130A30F5048091B20108958091B301823079F177
S1130A4028F4882341F08130C1F008958330C9F13E
S1130A50843009F0089562E271E080E00E947C0332
S1130A6063E271E081E00E947C0364E271E082E071
S1130A700E947C0365E271E035C06EE171E080E0C4
S1130A800E947C036FE171E081E00E947C0360E2DC
S1130A9071E082E00E947C0361E271E023C06AE1BC
S1130AA071E080E00E947C036BE171E081E00E94D0
S1130AB07C036CE171E082E00E947C036DE171E0F3
S1130AC011C066E171E080E00E947C0367E171E09F
S1130AD081E00E947C0368E171E082E00E947C0373
S1130AE069E171E083E00C947C030E94F5040E94A8
S1130AF0C7040C941C0583E08093B4011092B601E2
S1130B001092B70181E08093B5010895843008F014
S1130B1083E08093B40108958091B601823071F12D
S1130B2028F4882359F08130B1F05CC0843009F492
S1130B303FC088F1853009F44BC054C081E00E9465
S1130B408A0321E040E060E082E00E94BB0681E08D
S1130B508093B601089582E00E94CD0681110CC0F5
S1130B6021E040E060E082E00E94BB0682E08093E6
S1130B70B60180E00E948A0381E0089582E00E9429
S1130B80CD068111F9CF21E040E060E082E00E94CF
S1130B90BB0683E019C082E00E94CD068111ECCF30
S1130BA021E040E060E082E00E94BB0684E0DFCF09
S1130BB082E00E94CD068111DFCF21E040E060E0B9
S1130BC082E00E94BB0685E08093B60181E0D2CF2B
S1130BD082E00E94CD068111CFCF1092B6010E940F
S1130BE08A0302C01092B60180E008958091B70193
S1130BF0882319F0813071F014C021E040E060E0F6
S1130C0083E00E94BB0681E00E948A0381E0809316
S1130C10B701089583E00E94CD06811106C00E94A9
S1130C208A031092B70180E0089581E008958091CD
S1130C30B501882371F0813099F423E040E060E04D
S1130C4084E00E94BB0681E00E948A031092B501F1
S1130C500CC084E00E94CD06811107C00E948A0363
S1130C6081E08093B50180E0089581E0089580914A
S1130C70B401813071F028F0823081F0833099F032
S1130C8008950E948C05811111C083E08093B40102
S1130C9008950E94F6058823C1F308950E9417065B
S1130CA0882399F3089580E00C948A030895E8EB6F
S1130CB0F1E01182108213821282089585E00E946D
S1130CC07E0380579E4F9695879596958795C296F5
S1130CD09093BB018093BA010895823048F4E82FC1
S1130CE0F0E0EE0FFF1FE854FE4F808191810895DC
S1130CF080E090E00895EEEBF1E010821282118220
S1130D00339681E0ED3CF807C1F7EDECF1E0108299
S1130D10118212821382349681E0E93EF807B9F712
S1130D20089580916A01813029F5EDECF1E02BE31F
S1130D3080818130C1F483819281882341F0815084
S1130D4083833181932B892B71F410820CC09923F6
S1130D5019F09150928306C08181882321F081503B
S1130D60818322832383349681E0E93EF80701F7E7
S1130D7010926A010895873078F494E0899FF00115
S1130D801124E353FE4F1082618342832383242B77
S1130D90622B11F081E08083089524E0829FC001DA
S1130DA01124FC01E353FE4F808108951F920F929A
S1130DB00FB60F9211248F939F9380916A01811132
S1130DC009C084E294EF909385008093840081E0CD
S1130DD080936A019F918F910F900FBE0F901F9087
S1130DE0189597FB072E16F4009407D077FD09D0C9
S1130DF00E94050707FC05D03EF4909581959F4F0E
S1130E000895709561957F4F0895AA1BBB1B51E10E
S1130E1007C0AA1FBB1FA617B70710F0A61BB70B66
S1130E20881F991F5A95A9F780959095BC01CD010B
S1090E300895F894FFCFC1
S1130E362300260029000101010201030001000527
S1130E46000400030002C0B0B0C0C0A480C0C0F952
S1130E5690C0C0C0C0C0B400D200FA002C0140014A
S1130E667C010000000001020408102000000000BC
S1130E760001FEFDFBF7EFDFBF7F0102040810202F
S1130E864080000102030405000000000001010186
S10D0E96010101010101F1F2F4F879
S9030000FC
