:100000000C9434000C9451000C9451000C94510049
:100010000C9451000C9451000C9451000C9451001C
:100020000C9451000C9451000C9451000C9451000C
:100030000C9451000C9451000C9451000C945100FC
:100040000C9451000C9451000C9451000C945100EC
:100050000C9451000C9451000C9451000C945100DC
:100060000C9451000C94510011241FBECFEFD8E026
:10007000DEBFCDBF11E0A0E0B1E0EAEDF9E002C0E3
:1000800005900D92AA36B107D9F721E0AAE6B1E0B2
:1000900001C01D92A73BB207E1F70E9483000C94B8
:1000A000EB040C9400008FEF80936A0108950E9486
:1000B0006A0480936A018F3F19F1813069F028F05A
:1000C000823089F08330B1F01BC080E00E941104BF
:1000D00083E00E94060114C081E00E94110480E0C8
:1000E0000E9406010DC082E00E94110481E00E947E
:1000F000060106C083E00E94110482E00E9406010E
:100100000E94CE04089510926E010E9466020E9421
:100110000B040E9453000E9409010E94D5040E9412
:10012000BF00C1E00E945E030E94D70380916E0170
:10013000823081F028F48823C1F0813031F012C080
:10014000833069F0843089F00DC00E9457000E940E
:10015000CE040BC00E9432010E94DC0406C00E9443
:10016000C50003C0C0936E01DDCF80916E018F5F2B
:1001700080936E018530B0F210926E01D3CF109251
:10018000700183E080936F010895EF92FF920F93C7
:100190001F93CF93DF93E0916F01F0E0EE0FFF1F0D
:1001A000EE0FFF1FEA5DFE4FE080F18002811381B8
:1001B00081E00E94DD04EC0180916F01833021F425
:1001C00060E00E9449021BC080917001882319F0F1
:1001D000813061F014C060E083E00E944902EC16B7
:1001E000FD0668F081E08093700109C061E083E062
:1001F0000E944902C017D10710F010927001DF91E0
:10020000CF911F910F91FF90EF90089580936F0110
:100210000895CF93DF9310927D0110927E0110928A
:100220007E00C1E7D1E06CE371E0E6E3F1E080E05D
:1002300028E730E019921992DB019D91BD019130C0
:1002400051F4863040F4D90116964C91169790815E
:10025000942B16969C938F5F3196863059F7DF91D9
:10026000CF91089580917D01823081F128F4882317
:1002700041F08130F9F05FC08330C1F18430F1F199
:100280005AC080917F018F5F863018F480937F0180
:1002900002C010927F01E0917F01F0E0E45CFE4F2C
:1002A0008081813009F049C080937D0182E3809391
:1002B0007E01089580917E01882321F081508093F2
:1002C0007E01089582E080937D010895E8E7F0E0E3
:1002D000948180917F01892B848387E88283828146
:1002E0008064828383E080937D01089580917A0009
:1002F00086FD23C084E080937D01089580917C0079
:1003000085FF03C02091790030E080917C0085FD5D
:1003100006C0E8E7F0E02081818130E0382BE091F1
:100320007F01F0E0EE0FFF1FEF58FE4F3183208377
:1003300010927D01089510927D010895E8E7F0E0A4
:1003400094819F779483948190649483823068F43D
:10035000811104C084818062848307C0813029F4C4
:10036000E8E7F0E084818F7D8483623078F4611166
:1003700006C0E8E7F0E082818F7D828308956130D6
:1003800029F4E8E7F0E08281806282830895863074
:1003900048F4E82FF0E0EE0FFF1FEF58FE4F80818A
:1003A0009181089580E090E0089570E0FB01E65BA4
:1003B000FE4F2081813031F018F0823029F005C0E5
:1003C00095B103C098B101C09BB1413069F4E82FE9
:1003D000F0E0EE0FFF1FE050FF4F0190F081E02DA5
:1003E0008181822B81830895411114C0E82FF0E0B0
:1003F000EE0FFF1FE050FF4F0190F081E02D818153
:10040000DB01AE5BBE4F9C91982391839281822F3A
:10041000892B82830895411114C0E82FF0E0EE0F7C
:10042000FF1FE050FF4FA081B18112969C9112975F
:10043000E62FF0E0EE5BFE4F8081892312968C93CD
:100440000895E82FF0E0EE0FFF1FE050FF4FA0816E
:10045000B18112969C911297E62FF0E0E65BFE4F79
:100460008081892B12968C930895E82FF0E0EE0F8F
:10047000FF1FE050FF4F0190F081E02D9081E62FAB
:10048000F0E0E65BFE4F8081982381E009F480E094
:10049000089590E0662331F0FC01EF57FE4F21E014
:1004A00020830895FC01EF57FE4F10820895E1E884
:1004B000F1E025E831E091E0882311F0908301C05C
:1004C00010823196E217F307B9F708950F931F933F
:1004D000CF93DF93CEE0D1E006E111E041E0698106
:1004E00088810E94D5012296C017D107B9F7C6E0CE
:1004F000D1E00EE011E040E0698188810E94D501E1
:100500002296C017D107B9F781E00E945702549A8A
:10051000579A209A60E081E00E949E0110929D010E
:1005200085E080938001E8E5F1E081E991E0C5EAAA
:10053000D1E06EE971E04EE551E02191213039F4CE
:10054000DC011D921C9219821882DB011C9202961A
:1005500022966F5F7F4FE417F50779F7DF91CF9110
:100560001F910F910895282F843070F48091A40179
:1005700090E0A0E0B0E004C0B695A7959795879568
:100580002A95D2F78170089580E008950E94DA03D9
:100590000895AF92BF92CF92DF92EF92FF920F93A6
:1005A0001F93CF93DF93C2E6D1E00F2EF1E8EF2E39
:1005B000F1E0FF2EF02D0EE011E00F2EF6E6CF2E2B
:1005C000F1E0DF2EF02DBB24B394A12C8991813072
:1005D00059F4F8014B2DD7018C91811101C04A2D9E
:1005E000618180810E940B02BFEFEB1AFB0A0E5F54
:1005F0001F4FCC15DD0551F7DF91CF911F910F9162
:10060000FF90EF90DF90CF90BF90AF9008958F92C2
:100610009F92AF92BF92DF92EF92FF920F931F9340
:10062000CF93DF930F2EFEE5EF2EF1E0FF2EF02D9E
:1006300006E011E0C0E0D0E0812C912C54018394BD
:10064000F70181917F01813039F5F8016181808165
:100650000E943502811110C0D501C4010C2E04C0C6
:10066000880F991FAA1FBB1F0A94D2F72091A401DB
:10067000822B8093A40110C0D501C4010C2E04C0AC
:10068000880F991FAA1FBB1F0A94D2F780959091DB
:10069000A40189238093A40121960E5F1F4FC430CB
:1006A000D10571F6DF91CF911F910F91FF90EF90DF
:1006B000DF90BF90AF909F908F9008950E94C902E5
:1006C0000E9407030895CF93DF9380919D018130AD
:1006D00019F0833031F05DC060E081E00E949E013E
:1006E00058C0C0918001D0E0FE01E85AFE4F8081E1
:1006F000813009F044C0FE01E256FE4F808188300F
:1007000038F5FE01EE5AFE4F80810E94C701CC0FE2
:10071000DD1FCB57DE4F99838883E0918001F0E0A5
:10072000CF01880F991FDC01AB55BE4FEC01CB57B1
:10073000DE4F2D913C91119788819981820F931FF3
:100740008D939C93E256FE4F80818F5F808317C00C
:10075000FE01EE0FFF1FDF01AF56BE4FEB55FE4F00
:1007600080819181969587959695879596958795A1
:100770008D939C9311821082C256DE4F1882809115
:1007800080018F5F863018F48093800102C0109240
:10079000800180919D018F5F843018F480939D01CA
:1007A00003C081E080939D01DF91CF9108950E9465
:1007B00063030895FB015C9847E050E0208130E03E
:1007C000042E02C0359527950A94E2F720FF02C057
:1007D000289A01C028985F9A5F984150510970F794
:1007E00027E030E0E82FF0E0EA59FE4F408150E08A
:1007F000CA01022E02C0959587950A94E2F780FF00
:1008000002C0289A01C028985F9A5F982150310948
:1008100078F75C9A089584E08093B2011092B10158
:100820000895863010F48093B20108958091B2014A
:10083000813051F028F08230A1F08330F9F0089532
:1008400081E00E945702089560E080E00E94490222
:1008500061E081E00E94490261E082E00E94490279
:10086000089560E080E00E94490260E081E00E941B
:10087000490261E082E00E944902089560E080E060
:100880000E94490260E081E00E94490260E082E04B
:100890000E944902089580E00E94B302813011F461
:1008A0008093B10181E00E94B302813019F482E0AB
:1008B0008093B10182E00E94B302813019F483E099
:1008C0008093B10183E00E94B302813011F4109251
:1008D000B10108950E944B048091B1010895809167
:1008E000B2018130E1F030F0823071F1833009F4EF
:1008F00040C0089562E271E080E00E94C60263E2B7
:1009000071E081E00E94C60264E271E082E00E9430
:10091000C60265E271E083E00E94C60208956EE1BE
:1009200071E080E00E94C6026FE171E081E00E9408
:10093000C60260E271E082E00E94C60261E271E0FC
:1009400083E00E94C60208956AE171E080E00E949F
:10095000C6026BE171E081E00E94C6026CE171E0C9
:1009600082E00E94C6026DE171E083E00E94C6024F
:10097000089566E171E080E00E94C60267E171E0DF
:1009800081E00E94C60268E171E082E00E94C60236
:1009900069E171E083E00E94C60208950E944B0461
:1009A0000E9416040E946F040895E3EBF1E01182A7
:1009B00010821382128208950895823048F4E82F3D
:1009C000F0E0EE0FFF1FED54FE4F808191810895FE
:0A09D00080E090E00895F894FFCF56
:1009DA00230026002900010101020103000100058C
:1009EA00000400030002C0B0B0C0C0A480C0C0F9B7
:1009FA0090C0C0C0C0C0B400D200FA002C014001AF
:100A0A007C01000000000102040810200000000020
:100A1A000001FEFDFBF7EFDFBF7F01020408102093
:100A2A0040800001020304050000000000010101EA
:0A0A3A00010101010101F1F2F4F8DD
:00000001FF
