S01000004C4142335F50574D2E73726563BF
S11300000C9434000C9451000C9451000C94510045
S11300100C9451000C9451000C9451000C94510018
S11300200C9451000C9451000C9451000C94510008
S11300300C9451000C9451000C9451000C945100F8
S11300400C9451000C9451000C9451000C945100E8
S11300500C9451000C9451000C9451000C945100D8
S11300600C9451000C94510011241FBECFEFD8E022
S1130070DEBFCDBF11E0A0E0B1E0E6EFFDE002C0DD
S113008005900D92AA36B107D9F721E0AAE6B1E0AE
S113009001C01D92A93BB207E1F70E94AF000C9486
S11300A0F9060C9400008FEF80936A0180E00E94AF
S11300B05906089583E00E9459060E94CF05809353
S11300C06A018F3F09F448C0823039F128F488234B
S11300D041F08130A1F040C0833069F18A3AC9F11E
S11300E03BC080E00E946B0583E00E94370180EAF8
S11300F09FE00E941A0481E00E9459062DC081E00D
S11301000E946B0580E00E94370180ED97E00E9419
S11301101A0481E00E9459061FC082E00E946B0508
S113012081E00E94370188EB9BE00E941A0481E081
S11301300E94590611C083E00E946B0582E00E9470
S1130140370188E893E10E941A0481E00E9459066D
S113015003C083E00E9459060E944E06089510923F
S11301606E010E943A010E94AA020E949F030E940B
S113017065050E9455060E94AD060E94F0000E948B
S11301805300C1E00E94B80480916E01823099F05E
S113019028F4882341F0813059F015C0833081F070
S11301A08430A1F010C00E9488060E9431050EC060
S11301B00E945A000BC00E9463010E94B40606C04C
S11301C00E94F60003C0C0936E01DCCF80916E01E3
S11301D08F5F80936E018530A8F210926E01D2CFAA
S11301E01092700183E080936F010895EF92FF9263
S11301F00F931F93CF93DF93E0916F01F0E0EE0F25
S1130200FF1FEE0FFF1FEA5DFE4FE080F1800281C9
S1130210138181E00E94C306EC0180916F01833059
S113022021F461E00E9482031BC080917001882345
S113023019F0813061F014C061E083E00E94820310
S1130240EC16FD0668F081E08093700109C060E05F
S113025083E00E948203C017D10710F0109270014E
S1130260DF91CF911F910F91FF90EF9008958093AC
S11302706F010895CF93DF9310927D0110927E0158
S113028010927E00C1E7D1E06CE371E0E6E3F1E0B7
S113029080E028E730E019921992DB019D91BD01BD
S11302A0913051F4863040F4D90116964C9116974A
S11302B09081942B16969C938F5F3196863059F7D4
S11302C0DF91CF91089580917D01823081F128F4EE
S11302D0882341F08130F9F05FC08330C1F184306C
S11302E0F1F15AC080917F018F5F863018F48093BA
S11302F07F0102C010927F01E0917F01F0E0E45C95
S1130300FE4F8081813009F049C080937D0182E3F2
S113031080937E01089580917E01882321F081508D
S113032080937E01089582E080937D010895E8E73B
S1130330F0E0948180917F01892B848387E8828314
S113034082818064828383E080937D01089580911B
S11303507A0086FD23C084E080937D010895809116
S11303607C0085FF03C02091790030E080917C00FF
S113037085FD06C0E8E7F0E02081818130E0382B7C
S1130380E0917F01F0E0EE0FFF1FEF58FE4F318345
S1130390208310927D01089510927D010895E8E76D
S11303A0F0E094819F779483948190649483823065
S11303B068F4811104C084818062848307C0813021
S11303C029F4E8E7F0E084818F7D8483623078F457
S11303D0611106C0E8E7F0E082818F7D8283089591
S11303E0613029F4E8E7F0E0828180628283089535
S11303F0863048F4E82FF0E0EE0FFF1FEF58FE4F71
S113040080819181089580E090E008959B012D56AC
S11304103740273C310518F5813069F018F08230F7
S1130420A1F01DC092E295BD9B0125553B40273CA0
S1130430310508F179C092E2909381009B01255522
S11304403B40273C310500F176C092E29093B10025
S11304509B0125553B40273C310500F173C09B01AE
S113046025553B40273C310518F5813069F018F0DB
S11304708230F1F413C093E295BD9B012D533F40AC
S1130480273C310508F13AC093E2909381009B0127
S11304902D533F40273C3105F8F030C093E2909350
S11304A0B1009B012D533F40273C3105F0F026C09D
S11304B09B012D533F40273C310500F5813061F00D
S11304C018F08230D9F411C084E285BD65527341BD
S11304D0673C7105F0F0089584E2809381006552D1
S11304E07341673C7105C0F0089584E28093B100C4
S11304F065527341673C710598F0089565527341E4
S1130500673C710530F5813039F018F0823009F517
S113051007C085E285BD089585E280938100089532
S113052085E28093B10008959B012D533F40273C01
S1130530310550F2E3CF9B012D533F40273C310559
S113054058F2DCCF9B012D533F40273C310568F224
S1130550D5CF0895CF93DF93539A81E384BD8093DD
S11305608000C0EBD0E0888368EB7BE082E00E94EF
S113057006021C82DF91CF910895653608F064E687
S1130580823001F128F4882349F0813089F00895FC
S1130590843071F110F18530B1F108952FEF629F2D
S11305A0C001112464E670E00E94D10667BD08957D
S11305B02FEF629FC001112464E670E00E94D1060F
S11305C068BD08952FEF629FC001112464E670E0B6
S11305D00E94D1066093890008952FEF629FC001A5
S11305E0112464E670E00E94D10660938B000895A4
S11305F02FEF629FC001112464E670E00E94D106CF
S11306006093B30008952FEF629FC001112464E644
S113061070E00E94D1066093B400089570E0FB017D
S1130620E65BFE4F2081813031F018F0823029F0F2
S113063005C095B103C098B101C09BB1413069F4C4
S1130640E82FF0E0EE0FFF1FE050FF4F0190F08124
S1130650E02D8181822B81830895411114C0E82FFC
S1130660F0E0EE0FFF1FE050FF4F0190F081E02D0E
S11306708181DB01AE5BBE4F9C9198239183928173
S1130680822F892B82830895411114C0E82FF0E052
S1130690EE0FFF1FE050FF4FA081B18112969C9195
S11306A01297E62FF0E0EE5BFE4F808189231296CD
S11306B08C930895E82FF0E0EE0FFF1FE050FF4FFA
S11306C0A081B18112969C911297E62FF0E0E65B2F
S11306D0FE4F8081892B12968C930895E82FF0E0C9
S11306E0EE0FFF1FE050FF4F0190F081E02D90814D
S11306F0E62FF0E0E65BFE4F8081982381E009F469
S113070080E0089590E0662331F0FC01EF57FE4F3E
S113071021E020830895FC01EF57FE4F10820895D5
S1130720E1E8F1E025E831E091E0882311F09083DD
S113073001C010823196E217F307B9F708950F93B9
S11307401F93CF93DF93CEE0D1E006E111E041E0C7
S1130750698188810E940E032296C017D107B9F7D8
S1130760C6E0D1E00EE011E040E0698188810E949A
S11307700E032296C017D107B9F781E00E949003B7
S1130780549A579A209A60E081E00E94CF01109217
S11307909D0185E080938001E8E5F1E081E991E045
S11307A0C5EAD1E06EE971E04EE551E021912130D6
S11307B039F4DC011D921C9219821882DB011C920F
S11307C0029622966F5F7F4FE417F50779F7DF9162
S11307D0CF911F910F910895282F843070F4809148
S11307E0A40190E0A0E0B0E004C0B695A795979569
S11307F087952A95D2F78170089580E008950E9424
S113080034050895863048F4E82FF0E0EE0FFF1F1A
S1130810EF56FE4F8081918108950895882329F031
S113082062E385E00E94BD02089560E085E00E94D5
S1130830BD020895803D27E0920720F0BC0182E0CC
S11308400E9406020895AF92BF92CF92DF92EF9278
S1130850FF920F931F93CF93DF93C2E6D1E00F2E45
S1130860F1E8EF2EF1E0FF2EF02D0EE011E00F2E57
S1130870F6E6CF2EF1E0DF2EF02DBB24B394A12CAD
S11308808991813059F4F8014B2DD7018C91811154
S113089001C04A2D618180810E944403BFEFEB1A9D
S11308A0FB0A0E5F1F4FCC15DD0551F7DF91CF9189
S11308B01F910F91FF90EF90DF90CF90BF90AF907A
S11308C008958F929F92AF92BF92DF92EF92FF9220
S11308D00F931F93CF93DF930F2EFEE5EF2EF1E0DE
S11308E0FF2EF02D06E011E0C0E0D0E0812C912C29
S11308F054018394F70181917F01813039F5F80126
S1130900618180810E946E03811110C0D501C401F0
S11309100C2E04C0880F991FAA1FBB1F0A94D2F77C
S11309202091A401822B8093A40110C0D501C4019D
S11309300C2E04C0880F991FAA1FBB1F0A94D2F75C
S113094080959091A40189238093A40121960E5F40
S11309501F4FC430D10571F6DF91CF911F910F91D4
S1130960FF90EF90DF90BF90AF909F908F9008958D
S11309700E9423040E9461040895CF93DF93809121
S11309809D01813019F0833031F05DC060E081E079
S11309900E94CF0158C0C0918001D0E0FE01E85A06
S11309A0FE4F8081813009F044C0FE01E256FE4FC3
S11309B08081883038F5FE01EE5AFE4F80810E9416
S11309C0F801CC0FDD1FCB57DE4F99838883E0916C
S11309D08001F0E0CF01880F991FDC01AB55BE4FB9
S11309E0EC01CB57DE4F2D913C9111978881998171
S11309F0820F931F8D939C93E256FE4F80818F5FED
S1130A00808317C0FE01EE0FFF1FDF01AF56BE4FFC
S1130A10EB55FE4F808191819695879596958795A4
S1130A20969587958D939C9311821082C256DE4FC2
S1130A301882809180018F5F863018F48093800142
S1130A4002C01092800180919D018F5F843018F460
S1130A5080939D0103C081E080939D01DF91CF913C
S1130A6008950E94BD040895FB015C9847E050E09E
S1130A70208130E0042E02C0359527950A94E2F7D0
S1130A8020FF02C0289A01C028985F9A5F984150BD
S1130A90510970F727E030E0E82FF0E0EA59FE4F03
S1130AA0408150E0CA01022E02C0959587950A94B0
S1130AB0E2F780FF02C0289A01C028985F9A5F98E5
S1130AC02150310978F75C9A089584E08093B2014B
S1130AD01092B1010895863010F48093B201089504
S1130AE08091B2018230F9F028F4882359F08130E2
S1130AF069F00895833021F1843071F581E00E941A
S1130B009003089581E00E949003089560E080E0DE
S1130B100E94820361E081E00E94820361E082E03E
S1130B200E948203089560E080E00E94820360E0F6
S1130B3081E00E94820361E082E00E9482030895C2
S1130B4060E080E00E94820360E081E00E94820312
S1130B5060E082E00E94820308958AEA8093B101F2
S1130B6080E00E94EC03813011F48093B10181E0B4
S1130B700E94EC03813019F482E08093B10182E099
S1130B800E94EC03813019F483E08093B10183E087
S1130B900E94EC03813011F41092B10108950E9477
S1130BA0AD058091B10108958091B201823009F4BC
S1130BB04BC028F4882349F0813089F108958330AB
S1130BC009F457C08430B1F0089562E271E080E026
S1130BD00E94FF0363E271E081E00E94FF0364E28C
S1130BE071E082E00E94FF0365E271E083E00E940D
S1130BF0FF03089562E271E080E00E94FF0363E274
S1130C0071E081E00E94FF0364E271E082E00E94EF
S1130C10FF0365E271E083E00E94FF0308956EE143
S1130C2071E080E00E94FF036FE171E081E00E94C7
S1130C30FF0360E271E082E00E94FF0361E271E081
S1130C4083E00E94FF0308956AE171E080E00E945E
S1130C50FF036BE171E081E00E94FF036CE171E04E
S1130C6082E00E94FF036DE171E083E00E94FF03D4
S1130C70089566E171E080E00E94FF0367E171E09E
S1130C8081E00E94FF0368E171E082E00E94FF03BB
S1130C9069E171E083E00E94FF0308950E94AD05BD
S1130CA00E9470050E94D405089583E08093B301E7
S1130CB00895843020F083E08093B30108958093F5
S1130CC0B301089588EB9BE00E941A0481E00E941E
S1130CD00E042FE78AE196E0215080409040E1F72E
S1130CE000C0000080E00E940E0480E0089581E0CE
S1130CF00E940E042FE38DE093E021508040904049
S1130D00E1F700C0000080E00E940E0480E0089536
S1130D108091B301813071F028F0823099F08330F2
S1130D20C1F008950E946206811116C083E0809389
S1130D30B30108950E94770681110EC083E0809369
S1130D40B301089580E00E940E0483E08093B30110
S1130D50089580E00E940E040895E5EBF1E011820D
S1130D60108213821282089585E00E940204805743
S1130D709E4F9695879596958795C2969093B801C0
S1130D808093B7010895823048F4E82FF0E0EE0F25
S1130D90FF1FEB54FE4F80819181089580E090E025
S1130DA0089597FB072E16F4009407D077FD09D019
S1130DB00E94E50607FC05D03EF4909581959F4F6F
S1130DC00895709561957F4F0895AA1BBB1B51E14F
S1130DD007C0AA1FBB1FA617B70710F0A61BB70BA7
S1130DE0881F991F5A95A9F780959095BC01CD014C
S1090DF00895F894FFCF02
S1130DF62300260029000101010201030001000568
S1130E06000400030002C0B0B0C0C0A480C0C0F992
S1130E1690C0C0C0C0C0B400D200FA002C0140018A
S1130E267C010000000001020408102000000000FC
S1130E360001FEFDFBF7EFDFBF7F0102040810206F
S1130E4640800001020304050000000000010101C6
S10D0E56010101010101F1F2F4F8B9
S9030000FC
