S01200004C4142345F54494D45522E737265632F
S11300000C9434000C9451000C9451000C94510045
S11300100C9451000C9451000C9451000C94510018
S11300200C9451000C9451000C9451000C94510008
S11300300C9451000C9437080C9451000C9451000A
S11300400C9451000C9451000C9451000C945100E8
S11300500C9451000C9451000C9451000C945100D8
S11300600C9451000C94510011241FBECFEFD8E022
S1130070DEBFCDBF11E0A0E0B1E0E8EFF0E102C0E7
S113008005900D92AA36B107D9F721E0AAE6B1E0AE
S113009001C01D92A93EB207E1F70E94E2000C9450
S11300A07A080C9400008FEF80936B0184E18093B5
S11300B06C0110926E0180E00E94A80610926D01FE
S11300C008950E94170680936B018F3F09F463C063
S11300D08130E9F030F0823089F1833009F445C091
S11300E05AC080E00E94B30583E00E94820180EA46
S11300F09FE00E94620481E00E94A80620E040E0A4
S113010060E085E00E94130810926D0144C081E014
S11301100E94B30580E00E94820180ED97E00E9476
S1130120620481E00E94A8062AE040E060E085E0E5
S11301300E94130881E080936D012DC082E00E942B
S1130140B30581E00E94820188EB9BE00E94620477
S113015081E00E94A8062FE040E060E085E00E9474
S1130160130881E080936D0116C083E00E94B305FB
S113017082E00E94820188E893E10E94620481E0A7
S11301800E94A80624E140E060E085E00E94130894
S113019081E080936D010E94960680916D0181300B
S11301A081F485E00E942E0881110BC082E00E9438
S11301B0A80680E00E94B30583E00E9482011092A9
S11301C06D01089510926F0110928000E1E8F0E053
S11301D0108280818560808384E294EF909385000F
S11301E080938400EFE6F0E08081816080837894DE
S11301F00E9485010E94F5020E94E7030E94AD055A
S11302000E94CE070E949D060E94AA070E943B01FD
S11302100E945300C1E00E94E6070E9400058091FD
S11302206F01823099F028F4882341F0813059F02D
S113023015C0833081F08430A1F010C00E9484077F
S11302400E9479050EC00E9461000BC00E94AE019D
S11302500E94B10706C00E94410103C0C0936F0110
S1130260DACF80916F018F5F80936F01853098F2B0
S113027010926F01D0CF1092710183E080937001CE
S11302800895EF92FF920F931F93CF93DF93E09122
S11302907001F0E0EE0FFF1FEE0FFF1FEA5DFE4F4F
S11302A0E080F1800281138181E00E94C007EC01AB
S11302B080917001833021F461E00E94CA031BC065
S11302C080917101882319F0813061F014C061E0DC
S11302D083E00E94CA03EC16FD0668F081E0809377
S11302E0710109C060E083E00E94CA03C017D1070E
S11302F010F010927101DF91CF911F910F91FF9037
S1130300EF900895809370010895CF93DF93109236
S11303107E0110927F0110927E00C2E7D1E06CE36F
S113032071E0E6E3F1E080E028E730E01992199209
S1130330DB019D91BD01913051F4863040F4D90127
S113034016964C9116979081942B16969C938F5FDA
S11303503196863059F7DF91CF91089580917E01CF
S1130360823081F128F4882341F08130F9F05FC0B4
S11303708330C1F18430F1F15AC0809180018F5FE4
S1130380863018F48093800102C010928001E091BD
S11303908001F0E0E45CFE4F8081813009F049C0C7
S11303A080937E0182E380937F01089580917F0191
S11303B0882321F0815080937F01089582E0809307
S11303C07E010895E8E7F0E0948180918001892B13
S11303D0848387E8828382818064828383E080933C
S11303E07E01089580917A0086FD23C084E0809385
S11303F07E01089580917C0085FF03C020917900DF
S113040030E080917C0085FD06C0E8E7F0E02081C3
S1130410818130E0382BE0918001F0E0EE0FFF1F86
S1130420EE58FE4F3183208310927E01089510927E
S11304307E010895E8E7F0E094819F7794839481A6
S113044090649483823068F4811104C08481806252
S1130450848307C0813029F4E8E7F0E084818F7D4C
S11304608483623078F4611106C0E8E7F0E08281A9
S11304708F7D82830895613029F4E8E7F0E082817A
S1130480806282830895863048F4E82FF0E0EE0F0E
S1130490FF1FEE58FE4F80819181089580E090E027
S11304A008959B012D563740273C310518F58130BE
S11304B069F018F08230A1F01DC092E295BD9B0155
S11304C025553B40273C310508F179C092E29093D1
S11304D081009B0125553B40273C310500F176C046
S11304E092E29093B1009B0125553B40273C310596
S11304F000F173C09B0125553B40273C310518F59D
S1130500813069F018F08230F1F413C093E295BDA4
S11305109B012D533F40273C310508F13AC093E23B
S1130520909381009B012D533F40273C3105F8F007
S113053030C093E29093B1009B012D533F40273C80
S11305403105F0F026C09B012D533F40273C310577
S113055000F5813061F018F08230D9F411C082E0E6
S113056085BD65527341673C7105F0F0089582E0E2
S11305708093810065527341673C7105C0F0089512
S113058082E08093B10065527341673C710598F035
S1130590089565527341673C710530F5813039F037
S11305A018F0823009F507C085E285BD089585E21B
S11305B080938100089585E28093B10008959B01A2
S11305C02D533F40273C310550F2E3CF9B012D537F
S11305D03F40273C310558F2DCCF9B012D533F406F
S11305E0273C310568F2D5CF0895CF93DF93539A12
S11305F0C0EBD0E081E3888360EA7FE082E00E9480
S113060051021C82DF91CF910895653608F064E6AB
S1130610823001F128F4882349F0813089F008956B
S1130620843071F110F18530B1F108952FEF629F9C
S1130630C001112464E670E00E94520867BD089569
S11306402FEF629FC001112464E670E00E945208FB
S113065068BD08952FEF629FC001112464E670E025
S11306600E9452086093890008952FEF629FC00191
S1130670112464E670E00E94520860938B00089590
S11306802FEF629FC001112464E670E00E945208BB
S11306906093B30008952FEF629FC001112464E6B4
S11306A070E00E9452086093B400089570E0FB016A
S11306B0E65BFE4F2081813031F018F0823029F062
S11306C005C095B103C098B101C09BB1413069F434
S11306D0E82FF0E0EE0FFF1FE050FF4F0190F08194
S11306E0E02D8181822B81830895411114C0E82F6C
S11306F0F0E0EE0FFF1FE050FF4F0190F081E02D7E
S11307008181DB01AE5BBE4F9C91982391839281E2
S1130710822F892B82830895411114C0E82FF0E0C1
S1130720EE0FFF1FE050FF4FA081B18112969C9104
S11307301297E62FF0E0EE5BFE4F8081892312963C
S11307408C930895E82FF0E0EE0FFF1FE050FF4F69
S1130750A081B18112969C911297E62FF0E0E65B9E
S1130760FE4F8081892B12968C930895E82FF0E038
S1130770EE0FFF1FE050FF4F0190F081E02D9081BC
S1130780E62FF0E0E65BFE4F8081982381E009F4D8
S113079080E0089590E0662331F0FC01EE57FE4FAF
S11307A021E020830895FC01EE57FE4F1082089546
S11307B0E2E8F1E026E831E091E0882311F090834B
S11307C001C010823196E217F307B9F708950F9329
S11307D01F93CF93DF93CEE0D1E006E111E041E037
S11307E0698188810E9456032296C017D107B9F700
S11307F0C6E0D1E00EE011E040E0698188810E940A
S113080056032296C017D107B9F781E00E94D80396
S1130810549A579A209A60E081E00E941A0210923A
S11308209E0185E080938101E8E5F1E082E991E0B1
S1130830C6EAD1E06FE971E04EE551E02191213043
S113084039F4DC011D921C9219821882DB011C927E
S1130850029622966F5F7F4FE417F50779F7DF91D1
S1130860CF911F910F910895282F843070F48091B7
S1130870A50190E0A0E0B0E004C0B695A7959795D7
S113088087952A95D2F78170089580E008950E9493
S11308907C050895863048F4E82FF0E0EE0FFF1F42
S11308A0EE56FE4F8081918108950895882329F0A2
S11308B062E385E00E940503089560E085E00E94FC
S11308C005030895803D27E0920720F0BC0182E0F3
S11308D00E9451020895AF92BF92CF92DF92EF929D
S11308E0FF920F931F93CF93DF93C2E6D1E00F2EB5
S11308F0F2E8EF2EF1E0FF2EF02D0EE011E00F2EC6
S1130900F6E6CF2EF1E0DF2EF02DBB24B394A12C1C
S11309108991813059F4F8014B2DD7018C918111C3
S113092001C04A2D618180810E948C03BFEFEB1AC4
S1130930FB0A0E5F1F4FCC15DD0551F7DF91CF91F8
S11309401F910F91FF90EF90DF90CF90BF90AF90E9
S113095008958F929F92AF92BF92DF92EF92FF928F
S11309600F931F93CF93DF930F2EFEE5EF2EF1E04D
S1130970FF2EF02D06E011E0C0E0D0E0812C912C98
S113098054018394F70181917F01813039F5F80195
S1130990618180810E94B603811110C0D501C40118
S11309A00C2E04C0880F991FAA1FBB1F0A94D2F7EC
S11309B02091A501822B8093A50110C0D501C4010B
S11309C00C2E04C0880F991FAA1FBB1F0A94D2F7CC
S11309D080959091A50189238093A50121960E5FAE
S11309E01F4FC430D10571F6DF91CF911F910F9144
S11309F0FF90EF90DF90BF90AF909F908F900895FD
S1130A000E946B040E94A9040895CF93DF93809100
S1130A109E01813019F0833031F05DC060E081E0E7
S1130A200E941A0258C0C0918101D0E0FE01E85A28
S1130A30FE4F8081813009F044C0FE01E156FE4F33
S1130A408081883038F5FE01EE5AFE4F80810E9485
S1130A504302CC0FDD1FCA57DE4F99838883E09190
S1130A608101F0E0CF01880F991FDC01AA55BE4F28
S1130A70EC01CA57DE4F2D913C91119788819981E1
S1130A80820F931F8D939C93E156FE4F80818F5F5D
S1130A90808317C0FE01EE0FFF1FDF01AE56BE4F6D
S1130AA0EA55FE4F80819181969587959695879515
S1130AB0969587958D939C9311821082C156DE4F33
S1130AC01882809181018F5F863018F480938101B0
S1130AD002C01092810180919E018F5F843018F4CE
S1130AE080939E0103C081E080939E01DF91CF91AA
S1130AF008950E9405050895FB015C9847E050E0C5
S1130B00208130E0042E02C0359527950A94E2F73F
S1130B1020FF02C0289A01C028985F9A5F9841502C
S1130B20510970F727E030E0E82FF0E0EA59FE4F72
S1130B30408150E0CA01022E02C0959587950A941F
S1130B40E2F780FF02C0289A01C028985F9A5F9854
S1130B502150310978F75C9A089584E08093B301B9
S1130B601092B2010895863010F48093B301089571
S1130B708091B3018230F9F028F4882359F0813050
S1130B8069F00895833021F1843071F581E00E9489
S1130B90D803089581E00E94D803089560E080E0BE
S1130BA00E94CA0361E081E00E94CA0361E082E01E
S1130BB00E94CA03089560E080E00E94CA0360E0D6
S1130BC081E00E94CA0361E082E00E94CA030895A2
S1130BD060E080E00E94CA0360E081E00E94CA03F2
S1130BE060E082E00E94CA0308958AEA8093B20119
S1130BF080E00E943404813011F48093B20181E0DA
S1130C000E943404813019F482E08093B20182E0BE
S1130C100E943404813019F483E08093B20183E0AC
S1130C200E943404813011F41092B20108950E949C
S1130C30F5058091B20108958091B301823009F4E1
S1130C404BC028F4882349F0813089F1089583301A
S1130C5009F457C08430B1F0089562E271E080E095
S1130C600E94470463E271E081E00E94470464E269
S1130C7071E082E00E94470465E271E083E00E9433
S1130C804704089562E271E080E00E94470463E251
S1130C9071E081E00E94470464E271E082E00E9416
S1130CA0470465E271E083E00E94470408956EE121
S1130CB071E080E00E9447046FE171E081E00E94EE
S1130CC0470460E271E082E00E94470461E271E05F
S1130CD083E00E94470408956AE171E080E00E9485
S1130CE047046BE171E081E00E9447046CE171E02C
S1130CF082E00E9447046DE171E083E00E944704B2
S1130D00089566E171E080E00E94470467E171E0C4
S1130D1081E00E94470468E171E082E00E94470498
S1130D2069E171E083E00E94470408950E94F5059B
S1130D300E94B8050E941C06089583E08093B401C4
S1130D401092B6011092B70181E08093B501089525
S1130D50843020F083E08093B40108958093B4013B
S1130D60089588E893E10E9462048091B60182307C
S1130D7071F128F4882359F08130B1F06CC08430CB
S1130D8009F44BC0B8F1853009F45AC064C081E05D
S1130D900E94560421E040E060E082E00E941308D3
S1130DA081E08093B601089582E00E942E088111AB
S1130DB056C021E040E060E082E00E94130882E037
S1130DC08093B60180E00E94560481E0089582E099
S1130DD00E942E08811145C021E040E060E082E0DD
S1130DE00E94130883E08093B60181E00E945604B8
S1130DF081E0089582E00E942E08811134C021E030
S1130E0040E060E082E00E94130884E08093B60131
S1130E1080E00E94560481E0089582E00E942E083A
S1130E20811123C021E040E060E082E00E941308C9
S1130E3085E08093B60181E00E94560481E0089524
S1130E4082E00E942E08811112C01092B6010E9405
S1130E50560480E008951092B60180E0089581E080
S1130E60089581E0089581E0089581E0089581E086
S1130E7008958091B701882319F0813071F018C06A
S1130E8021E040E060E083E00E94130881E00E94DA
S1130E90560481E08093B701089583E00E942E08F0
S1130EA081110AC00E9456041092B70180E008958F
S1130EB01092B70180E0089581E008958091B50112
S1130EC0882379F08130C9F423E040E060E084E0D5
S1130ED00E94130881E00E9456041092B50181E03B
S1130EE0089584E00E942E0881110CC00E945604CB
S1130EF081E08093B50180E0089581E08093B5019D
S1130F0080E0089581E008958091B401813071F00A
S1130F1028F0823099F08330C9F008950E94B10618
S1130F20811117C083E08093B40108950E943907AA
S1130F3081110FC083E08093B40108950E945E077D
S1130F40811107C083E08093B401089580E00E947A
S1130F5056040895E8EBF1E01182108213821282A4
S1130F60089585E00E944A0480579E4F9695879580
S1130F7096958795C2969093BB018093BA01089584
S1130F80823048F4E82FF0E0EE0FFF1FE854FE4FE4
S1130F9080819181089580E090E00895EEEBF1E086
S1130FA08DEC91E01082128211823396E817F907D2
S1130FB0C9F7EDECF1E089EE91E010821182128222
S1130FC013823496E817F907C1F7089580916A01EE
S1130FD0813041F5EDECF1E029EE31E04BE3808125
S1130FE08130D1F48381882349F0815083835281F5
S1130FF09181952B892B81F410820EC082818823E4
S113100021F081508283438307C08181882321F0AA
S113101081508183428343833496E217F307F9F6C0
S113102010926A0108958730C0F490E0FC01EE0F3D
S1131030FF1FEE0FFF1FE353FE4F108261834283B5
S11310402383242B622B49F0880F991F880F991F43
S1131050FC01E353FE4F81E08083089524E0829FE6
S1131060C0011124FC01E353FE4F808108951F92B7
S11310700F920FB60F9211248F939F9380916A0160
S1131080811109C084E294EF9093850080938400D9
S113109081E080936A019F918F910F900FBE0F9012
S11310A01F90189597FB072E16F4009407D077FD30
S11310B009D00E94660807FC05D03EF490958195FE
S11310C09F4F0895709561957F4F0895AA1BBB1B90
S11310D051E107C0AA1FBB1FA617B70710F0A61B34
S11310E0B70B881F991F5A95A9F780959095BC0155
S10B10F0CD010895F894FFCF2F
S11310F82300260029000101010201030001000563
S1131108000400030002C0B0B0C0C0A480C0C0F98D
S113111890C0C0C0C0C0B400D200FA002C01400185
S11311287C010000000001020408102000000000F7
S11311380001FEFDFBF7EFDFBF7F0102040810206A
S113114840800001020304050000000000010101C1
S10D1158010101010101F1F2F4F8B4
S9030000FC
