S01200004C4142345F54494D45522E737265632F
S11300000C9434000C9451000C9451000C94510045
S11300100C9451000C9451000C9451000C94510018
S11300200C9451000C9451000C9451000C94510008
S11300300C9451000C949E070C9451000C945100A4
S11300400C9451000C9451000C9451000C945100E8
S11300500C9451000C9451000C9451000C945100D8
S11300600C9451000C94510011241FBECFEFD8E022
S1130070DEBFCDBF11E0A0E0B1E0E6ECFFE002C0DE
S113008005900D92AA36B107D9F721E0AAE6B1E0AE
S113009001C01D92A93EB207E1F70E94E2000C9450
S11300A0E1070C9400008FEF80936B0184E180934F
S11300B06C0110926E0180E00E94130610926D0193
S11300C008950E94820580936B018F3F09F463C0F9
S11300D08130E9F030F0823089F1833009F445C091
S11300E05AC080E00E941E0583E00E94820180EADB
S11300F09FE00E94CD0381E00E94130620E040E0CF
S113010060E085E00E947A0710926D0144C081E0AE
S11301100E941E0580E00E94820180ED97E00E940B
S1130120CD0381E00E9413062AE040E060E085E010
S11301300E947A0781E080936D012DC082E00E94C5
S11301401E0581E00E94820188EB9BE00E94CD03A2
S113015081E00E9413062FE040E060E085E00E9409
S11301607A0781E080936D0116C083E00E941E052A
S113017082E00E94820188E893E10E94CD0381E03D
S11301800E94130624E140E060E085E00E947A07C3
S113019081E080936D010E94010680916D018130A0
S11301A081F485E00E94950781110BC085E00E94CF
S11301B01E0583E00E94820182E00E9413061092D1
S11301C06D01089510926F0110928000E1E8F0E053
S11301D0108280818560808384E294EF909385000F
S11301E080938400EFE6F0E08081816080837894DE
S11301F00E9485010E9451020E9452030E94180528
S11302000E9435070E9408060E9411070E943B01C4
S11302100E945300C1E00E944D070E946B0480912C
S11302206F01823099F028F4882341F0813059F02D
S113023015C0833081F08430A1F010C00E94EB0619
S11302400E94E4040EC00E9461000BC00E94AE0133
S11302500E94180706C00E94410103C0C0936F01A9
S1130260DACF80916F018F5F80936F01853098F2B0
S113027010926F01D0CF1092710183E080937001CE
S11302800895EF92FF920F931F93CF93DF93E09122
S11302907001F0E0EE0FFF1FEE0FFF1FEA5DFE4F4F
S11302A0E080F1800281138181E00E942707EC0144
S11302B080917001833021F461E00E9435031BC0FA
S11302C080917101882319F0813061F014C061E0DC
S11302D083E00E943503EC16FD0668F081E080930C
S11302E0710109C060E083E00E943503C017D107A3
S11302F010F010927101DF91CF911F910F91FF9037
S1130300EF900895809370010895CF93DF93109236
S11303107E0110927F0110927E00C2E7D1E06CE36F
S113032071E0E6E3F1E080E028E730E01992199209
S1130330DB019D91BD01913051F4863040F4D90127
S113034016964C9116979081942B16969C938F5FDA
S11303503196863059F7DF91CF91089580917E01CF
S1130360823081F128F4882341F08130F9F05FC0B4
S11303708330C1F18430F1F15AC0809180018F5FE4
S1130380863018F48093800102C010928001E091BD
S11303908001F0E0E45CFE4F8081813009F049C0C7
S11303A080937E0182E380937F01089580917F0191
S11303B0882321F0815080937F01089582E0809307
S11303C07E010895E8E7F0E0948180918001892B13
S11303D0848387E8828382818064828383E080933C
S11303E07E01089580917A0086FD23C084E0809385
S11303F07E01089580917C0085FF03C020917900DF
S113040030E080917C0085FD06C0E8E7F0E02081C3
S1130410818130E0382BE0918001F0E0EE0FFF1F86
S1130420EE58FE4F3183208310927E01089510927E
S11304307E010895E8E7F0E094819F7794839481A6
S113044090649483823068F4811104C08481806252
S1130450848307C0813029F4E8E7F0E084818F7D4C
S11304608483623078F4611106C0E8E7F0E08281A9
S11304708F7D82830895613029F4E8E7F0E082817A
S1130480806282830895863048F4E82FF0E0EE0F0E
S1130490FF1FEE58FE4F80819181089580E090E027
S11304A00895539AE0EBF0E081E3808382E0818356
S11304B0148208956D537F40673C710580F4813048
S11304C039F018F0823041F0089582E085BD089536
S11304D082E080938100089582E08093B1000895C2
S11304E0653608F064E6823001F128F4882349F087
S11304F0813089F00895843071F110F18530B1F1C3
S113050008952FEF629FC001112464E670E00E94F9
S1130510B90767BD08952FEF629FC001112464E6F7
S113052070E00E94B90768BD08952FEF629FC00173
S1130530112464E670E00E94B9076093890008956D
S11305402FEF629FC001112464E670E00E94B90796
S113055060938B0008952FEF629FC001112464E61D
S113056070E00E94B9076093B30008952FEF629F73
S1130570C001112464E670E00E94B9076093B400DE
S1130580089570E0FB01E65BFE4F2081813031F07D
S113059018F0823029F005C095B103C098B101C0AC
S11305A09BB1413069F4E82FF0E0EE0FFF1FE050FB
S11305B0FF4F0190F081E02D8181822B818308958A
S11305C0411114C0E82FF0E0EE0FFF1FE050FF4F81
S11305D00190F081E02D8181DB01AE5BBE4F9C91E7
S11305E0982391839281822F892B828308954111CC
S11305F014C0E82FF0E0EE0FFF1FE050FF4FA08182
S1130600B18112969C911297E62FF0E0EE5BFE4FBB
S11306108081892312968C930895E82FF0E0EE0FE1
S1130620FF1FE050FF4FA081B18112969C91129759
S1130630E62FF0E0E65BFE4F8081892B12968C93C7
S11306400895E82FF0E0EE0FFF1FE050FF4F0190F8
S1130650F081E02D9081E62FF0E0E65BFE4F808193
S1130660982381E009F480E0089590E0662331F056
S1130670FC01EE57FE4F21E020830895FC01EE5764
S1130680FE4F10820895E2E8F1E026E831E091E0BF
S1130690882311F0908301C010823196E217F3078A
S11306A0B9F708950F931F93CF93DF93CEE0D1E072
S11306B006E111E041E0698188810E94C10222962D
S11306C0C017D107B9F7C6E0D1E00EE011E040E071
S11306D0698188810E94C1022296C017D107B9F7A7
S11306E081E00E944303549A579A209A60E081E083
S11306F00E941A0210929E0185E080938101E8E530
S1130700F1E082E991E0C6EAD1E06FE971E04EE5FB
S113071051E02191213039F4DC011D921C9219829F
S11307201882DB011C92029622966F5F7F4FE417BA
S1130730F50779F7DF91CF911F910F910895282F35
S1130740843070F48091A50190E0A0E0B0E004C092
S1130750B695A795979587952A95D2F781700895B0
S113076080E008950E94E7040895863048F4E82F55
S1130770F0E0EE0FFF1FEE56FE4F80819181089549
S11307800895882329F062E385E00E9470020895A9
S113079060E085E00E9470020895803D27E09207A2
S11307A020F0BC0182E00E945A020895AF92BF92E9
S11307B0CF92DF92EF92FF920F931F93CF93DF9329
S11307C0C2E6D1E00F2EF2E8EF2EF1E0FF2EF02D7D
S11307D00EE011E00F2EF6E6CF2EF1E0DF2EF02D25
S11307E0BB24B394A12C8991813059F4F8014B2D89
S11307F0D7018C91811101C04A2D618180810E94B1
S1130800F702BFEFEB1AFB0A0E5F1F4FCC15DD0595
S113081051F7DF91CF911F910F91FF90EF90DF90EF
S1130820CF90BF90AF9008958F929F92AF92BF9256
S1130830DF92EF92FF920F931F93CF93DF930F2ECC
S1130840FEE5EF2EF1E0FF2EF02D06E011E0C0E012
S1130850D0E0812C912C54018394F70181917F0184
S1130860813039F5F801618180810E942103811171
S113087010C0D501C4010C2E04C0880F991FAA1FF3
S1130880BB1F0A94D2F72091A501822B8093A50166
S113089010C0D501C4010C2E04C0880F991FAA1FD3
S11308A0BB1F0A94D2F780959091A5018923809368
S11308B0A50121960E5F1F4FC430D10571F6DF915B
S11308C0CF911F910F91FF90EF90DF90BF90AF9069
S11308D09F908F9008950E94D6030E941404089557
S11308E0CF93DF9380919E01813019F0833031F0F2
S11308F05DC060E081E00E941A0258C0C09181018D
S1130900D0E0FE01E85AFE4F8081813009F044C0F6
S1130910FE01E156FE4F8081883038F5FE01EE5A23
S1130920FE4F80810E944302CC0FDD1FCA57DE4F69
S113093099838883E0918101F0E0CF01880F991FAA
S1130940DC01AA55BE4FEC01CA57DE4F2D913C91F4
S1130950119788819981820F931F8D939C93E156FF
S1130960FE4F80818F5F808317C0FE01EE0FFF1F53
S1130970DF01AE56BE4FEA55FE4F808191819695B8
S1130980879596958795969587958D939C931182D7
S11309901082C156DE4F1882809181018F5F8630AC
S11309A018F48093810102C01092810180919E010C
S11309B08F5F843018F480939E0103C081E080939C
S11309C09E01DF91CF9108950E9470040895FB0168
S11309D05C9847E050E0208130E0042E02C0359559
S11309E027950A94E2F720FF02C0289A01C02898AC
S11309F05F9A5F984150510970F727E030E0E82F83
S1130A00F0E0EA59FE4F408150E0CA01022E02C0D4
S1130A10959587950A94E2F780FF02C0289A01C051
S1130A2028985F9A5F982150310978F75C9A089565
S1130A3084E08093B3011092B2010895863010F4DB
S1130A408093B30108958091B3018230F9F028F4C2
S1130A50882359F0813069F00895833021F184307E
S1130A6071F581E00E944303089581E00E944303ED
S1130A70089560E080E00E94350361E081E00E9417
S1130A80350361E082E00E943503089560E080E070
S1130A900E94350360E081E00E94350361E082E05A
S1130AA00E943503089560E080E00E94350360E011
S1130AB081E00E94350360E082E00E9435030895DE
S1130AC08AEA8093B20180E00E949F03813011F48E
S1130AD08093B20181E00E949F03813019F482E087
S1130AE08093B20182E00E949F03813019F483E075
S1130AF08093B20183E00E949F03813011F410922D
S1130B00B20108950E9460058091B2010895809118
S1130B10B301823009F44BC028F4882349F08130B2
S1130B2089F10895833009F457C08430B1F00895F1
S1130B3062E271E080E00E94B20363E271E081E06E
S1130B400E94B20364E271E082E00E94B20365E2B3
S1130B5071E083E00E94B203089562E271E080E0F4
S1130B600E94B20363E271E081E00E94B20364E296
S1130B7071E082E00E94B20365E271E083E00E94CA
S1130B80B20308956EE171E080E00E94B2036FE168
S1130B9071E081E00E94B20360E271E082E00E94B1
S1130BA0B20361E271E083E00E94B20308956AE156
S1130BB071E080E00E94B2036BE171E081E00E9489
S1130BC0B2036CE171E082E00E94B2036DE171E076
S1130BD083E00E94B203089566E171E080E00E9420
S1130BE0B20367E171E081E00E94B20368E171E061
S1130BF082E00E94B20369E171E083E00E94B203E3
S1130C0008950E9460050E9423050E9487050895A7
S1130C1083E08093B4011092B6011092B70181E091
S1130C208093B5010895843020F083E08093B4016B
S1130C3008958093B40108958091B601823071F1D2
S1130C4028F4882359F08130B1F06CC0843009F461
S1130C504BC0B8F1853009F45AC064C081E00E94E9
S1130C60C10321E040E060E082E00E947A0781E075
S1130C708093B601089582E00E949507811156C0C1
S1130C8021E040E060E082E00E947A0782E0809305
S1130C90B60180E00E94C10381E0089582E00E94D1
S1130CA09507811145C021E040E060E082E00E94A8
S1130CB07A0783E08093B60181E00E94C10381E05A
S1130CC0089582E00E949507811134C021E040E03C
S1130CD060E082E00E947A0784E08093B60180E0BD
S1130CE00E94C10381E0089582E00E94950781116A
S1130CF023C021E040E060E082E00E947A0785E0C2
S1130D008093B60181E00E94C10381E0089582E0EE
S1130D100E949507811112C01092B6010E94C1036E
S1130D2080E008951092B60180E0089581E008956E
S1130D3081E0089581E0089581E0089581E00895B7
S1130D408091B701882319F0813071F018C021E037
S1130D5040E060E083E00E947A0781E00E94C103E2
S1130D6081E08093B701089583E00E949507811183
S1130D700AC00E94C1031092B70180E00895109246
S1130D80B70180E0089581E008958091B50188233A
S1130D9079F08130C9F423E040E060E084E00E940F
S1130DA07A0781E00E94C1031092B50181E00895A1
S1130DB084E00E94950781110CC00E94C10381E068
S1130DC08093B50180E0089581E08093B50180E0CF
S1130DD0089581E008958091B401813071F028F084
S1130DE0823099F08330C9F008950E941C06811165
S1130DF017C083E08093B40108950E94A006811176
S1130E000FC083E08093B40108950E94C506811148
S1130E1007C083E08093B401089580E00E94C10379
S1130E200895E8EBF1E01182108213821282089592
S1130E3085E00E94B50380579E4F969587959695B9
S1130E408795C2969093BB018093BA01089582302E
S1130E5048F4E82FF0E0EE0FFF1FE854FE4F8081C6
S1130E609181089580E090E00895EEEBF1E08DEC3F
S1130E7091E01082128211823396E817F907C9F7BC
S1130E80EDECF1E089EE91E010821182128213827E
S1130E903496E817F907C1F7089580916A01813003
S1130EA041F5EDECF1E029EE31E04BE38081813056
S1130EB0D1F48381882349F08150838352819181C5
S1130EC0952B892B81F410820EC08281882321F016
S1130ED081508283438307C08181882321F081501C
S1130EE08183428343833496E217F307F9F6109221
S1130EF06A0108958730C0F490E0FC01EE0FFF1FF3
S1130F00EE0FFF1FE353FE4F10826183428323835E
S1130F10242B622B49F0880F991F880F991FFC011D
S1130F20E353FE4F81E08083089524E0829FC00153
S1130F301124FC01E353FE4F808108951F920F9208
S1130F400FB60F9211248F939F9380916A018111A0
S1130F5009C084E294EF909385008093840081E03B
S1130F6080936A019F918F910F900FBE0F901F90F5
S1130F70189597FB072E16F4009407D077FD09D037
S1130F800E94CD0707FC05D03EF4909581959F4FB4
S1130F900895709561957F4F0895AA1BBB1B51E17D
S1130FA007C0AA1FBB1FA617B70710F0A61BB70BD5
S1130FB0881F991F5A95A9F780959095BC01CD017A
S1090FC00895F894FFCF30
S1130FC62300260029000101010201030001000596
S1130FD6000400030002C0B0B0C0C0A480C0C0F9C1
S1130FE690C0C0C0C0C0B400D200FA002C014001B9
S1130FF67C0100000000010204081020000000002B
S11310060001FEFDFBF7EFDFBF7F0102040810209D
S113101640800001020304050000000000010101F4
S10D1026010101010101F1F2F4F8E7
S9030000FC
