S01000006170706C5F7379732E73726563A9
S11300000C9434000C9451000C9451000C94510045
S11300100C9451000C9451000C9451000C94510018
S11300200C9451000C9451000C9451000C94510008
S11300300C9451000C9451000C9451000C945100F8
S11300400C9451000C9451000C9451000C945100E8
S11300500C9451000C9451000C9451000C945100D8
S11300600C9451000C94510011241FBECFEFD8E022
S1130070DEBFCDBF11E0A0E0B1E0E8EBF3E002C0E9
S113008005900D92A432B107D9F721E0A4E2B1E0C2
S113009001C01D92AE32B207E1F70E9477000C94C2
S11300A0DA010C9400008FEF8093240108950E94DC
S11300B0D501809324018F3FB9F0813051F028F0AD
S11300C0823059F0833069F00FC080E00E946001F3
S11300D00BC081E00E94600107C082E00E946001C1
S11300E003C083E00E9460010E94D0010895109231
S11300F028010E9429010E945A010E945300C1E074
S113010080912801813039F018F0853038F409C025
S11301100E94570006C00E94D00103C0C09328016A
S1130120EFCF809128018F5F80932801853040F3C1
S113013010922801E5CF70E0FB01E45EFE4F2081C0
S1130140413069F4E82FF0E0EE0FFF1FE050FF4F5D
S11301500190F081E02D8181822B818308954111EA
S113016014C0E82FF0E0EE0FFF1FE050FF4F0190A6
S1130170F081E02D8181DB01AC5EBE4F9C91982320
S113018091839281822F892B82830895411114C017
S1130190E82FF0E0EE0FFF1FE050FF4FA081B18188
S11301A012969C911297E62FF0E0EC5EFE4F808150
S11301B0892312968C930895E82FF0E0EE0FFF1F29
S11301C0E050FF4FA081B18112969C911297E62FC7
S11301D0F0E0E45EFE4F8081892B12968C930895A3
S11301E0E82FF0E0EE0FFF1FE050FF4F0190F08189
S11301F0E02D9081E62FF0E0E45EFE4F80819823AD
S113020081E009F480E00895462FE82FF0E0EE0F36
S1130210FF1FE45FFE4F618180810E94C600089544
S1130220FF920F931F93CF93DF93F82ECCE0D1E08E
S113023004E111E04F2D698188810E94C600229655
S1130240C017D107B9F7DF91CF911F910F91FF909C
S113025008950F931F93CF93DF93CCE0D1E004E193
S113026011E041E0698188810E949B002296C017B9
S1130270D107B9F7C6E0D1E00CE011E040E06981B4
S113028088810E949B002296C017D107B9F781E0AC
S11302900E941001DF91CF911F910F910895E82FD3
S11302A0F0E0EE0FFF1FEA5FFE4F618180810E9444
S11302B0F000089584E080932C01109229010895A0
S11302C0863010F480932C01089580912C018130A4
S11302D051F028F08230A1F08330F9F0089581E0E4
S11302E00E941001089560E080E00E94040161E032
S11302F081E00E94040161E082E00E94040108950B
S113030060E080E00E94040160E081E00E9404015A
S113031061E082E00E940401089560E080E00E94B0
S1130320040160E081E00E94040160E082E00E9438
S11303300401089580E00E944F0180932D0181E023
S11303400E944F0180932B0182E00E944F01809311
S11303502A0190912D01911116C081110CC01092A7
S113036029012FEF83ED90E3215080409040E1F785
S113037000C00000089591E09093290190912B0111
S1130380992329F0089590912B01911103C092E0D3
S113039090932901811103C083E08093290108957A
S11303A00E949A010E94650108950E949A01809119
S10B03B029010895F894FFCF20
S11303B823002600290001010102010300050004AD
S11303C800030002FEFDFBF7EFDFBF7F0102040814
S10703D8102040802D
S9030000FC
