S01000006170706C5F68616C2E73726563D3
S11300000C9434000C9451000C9451000C94510045
S11300100C9451000C9451000C9451000C94510018
S11300200C9451000C9451000C9451000C94510008
S11300300C9451000C9451000C9451000C945100F8
S11300400C9451000C9451000C9451000C945100E8
S11300500C9451000C9451000C9451000C945100D8
S11300600C9451000C94510011241FBECFEFD8E022
S1130070DEBFCDBF11E0A0E0B1E0E2E3F2E002C0F8
S113008005900D92A631B107D9F721E0A6E1B1E0C0
S113009001C01D92A731B207E1F70E9492000C94AF
S11300A017010C94000041E065E080E00E94AE007E
S11300B041E064E080E00E94AE0041E063E080E063
S11300C00E94AE0041E062E080E00E94AE0040E0A9
S11300D061E081E00E94AE0041E065E080E00E94C2
S11300E0D90041E064E080E00E94D90041E063E08F
S11300F080E00E94D90041E062E080E00E94D900E3
S1130100089561E081E00E940301811105C040E08F
S113011064E00E94D900089541E064E080E00E9418
S1130120D9000895109216010E945300C1E08091F5
S11301301601882319F0853020F406C00E9481003E
S113014003C0C0931601F3CF809116018F5F809393
S11301501601853060F310921601E9CF70E0FB01BF
S1130160E25FFE4F2081413069F4E82FF0E0EE0FAA
S1130170FF1FE050FF4F0190F081E02D8181822B21
S113018081830895411114C0E82FF0E0EE0FFF1FA2
S1130190E050FF4F0190F081E02D8181DB01AA5FE7
S11301A0BE4F9C91982391839281822F892B8283C5
S11301B00895411114C0E82FF0E0EE0FFF1FE05046
S11301C0FF4FA081B18112969C911297E62FF0E027
S11301D0EA5FFE4F8081892312968C930895E82F5D
S11301E0F0E0EE0FFF1FE050FF4FA081B1811296A7
S11301F09C911297E62FF0E0E25FFE4F8081892BFD
S113020012968C930895E82FF0E0EE0FFF1FE05054
S1130210FF4F0190F081E02D9081E62FF0E0E25F46
S1130220FE4F8081982381E009F480E00895F894DA
S1050230FFCFFA
S1130232230026002900FEFDFBF7EFDFBF7F01024A
S1090242040810204080B6
S9030000FC
