S00D0000466F726E6F2E7372656313
S11300000C9434000C9451000C9451000C94510045
S11300100C9451000C9451000C9451000C94510018
S11300200C9451000C9451000C9451000C94510008
S11300300C9451000C9451000C9451000C945100F8
S11300400C9451000C9451000C9451000C945100E8
S11300500C9451000C9451000C9451000C945100D8
S11300600C9451000C94510011241FBECFEFD8E022
S1130070DEBFCDBF11E0A0E0B1E0E4E3F3E002C0F5
S113008005900D92A432B107D9F721E0A4E2B1E0C2
S113009001C01D92AB32B207E1F70E94A6000C9496
S11300A098010C9400000E94270181E00E945601EF
S11300B00895CF93DF930E946F01C4E2D1E0888357
S11300C00E946F0189830E946F018A839881913015
S11300D0D1F4813061F40E9456012FE38DE093E066
S11300E0215080409040E1F700C000002CC060E047
S11300F080E00E944A0161E081E00E944A0161E0DF
S113010082E00E944A0180912501813061F460E01F
S113011080E00E944A0160E081E00E944A0161E0BF
S113012082E00E944A0180912601813061F460E0FE
S113013080E00E944A0160E081E00E944A0160E0A0
S113014082E00E944A01DF91CF91089510922A0122
S11301500E945300C1E080912A01882319F0853060
S113016020F406C00E94590003C0C0932A01F3CFB3
S113017080912A018F5F80932A01853060F3109269
S11301802A01E9CF70E0DB01A45EBE4F2C918130DF
S113019039F018F0823039F008C0E3E2F0E005C02D
S11301A0E6E2F0E002C0E9E2F0E0413021F48181CE
S11301B0822B8183089541110BC08181DB01AC5EE8
S11301C0BE4F9C91982391839281822F892B8283A5
S11301D00895411114C0E82FF0E0EE0FFF1FE05026
S11301E0FF4FA081B18112969C911297E62FF0E007
S11301F0EC5EFE4F8081892312968C930895E82F3C
S1130200F0E0EE0FFF1FE050FF4FA081B181129686
S11302109C911297E62FF0E0E45EFE4F8081892BDB
S113022012968C930895E82FF0E0EE0FFF1FE05034
S1130230FF4F0190F081E02D9081E62FF0E0E45E25
S1130240FE4F8081982381E009F080E008950F93A8
S11302501F93CF93DF93CCE0D1E004E111E041E0C0
S1130260698188810E94C2002296C017D107B9F71C
S1130270C6E0D1E00CE011E040E0698188810E9491
S1130280C2002296C017D107B9F7DF91CF911F9111
S11302900F910895462FE82FF0E0EE0FFF1FE45F63
S11302A0FE4F618180810E94E9000895FF920F93BF
S11302B01F93CF93DF93F82ECCE0D1E004E111E05B
S11302C04F2D698188810E94E9002296C017D107C9
S11302D0B9F7DF91CF911F910F91FF900895EF929D
S11302E0FF920F931F93CF93DF93E4E2F1E08FEF3C
S11302F0808381838283C6E0D1E08F010F2EFCE0EE
S1130300EF2EF1E0FF2EF02D698188810E94130108
S1130310F80181938F012296CE15DF05A9F784E2B7
S113032091E0DF91CF911F910F91FF90EF9008958D
S1070330F894FFCF6B
S11303342300260029000101010201030005000431
S113034400030002FEFDFBF7EFDFBF7F0102040898
S107035410204080B1
S9030000FC
