S00D0000466F726E6F2E7372656313
S11300000C9434000C9449000C9449000C9449005D
S11300100C9449000C9449000C9449000C94490038
S11300200C9449000C9449000C9449000C94490028
S11300300C9449000C9449000C9449000C94490018
S11300400C9449000C9449000C9449000C94490008
S11300500C9449000C9449000C9449000C944900F8
S11300600C9449000C94490011241FBECFEFD8E032
S1130070DEBFCDBF11E0A0E0B1E0EEEBF1E002C0E5
S113008005900D92A631B107D9F70E944B000C944C
S1130090DD000C94000041E064E080E00E94780000
S11300A040E061E081E00E94780061E081E00E942C
S11300B0C9008130D1F740E064E080E00E949F00F5
S11300C02FEF83ED90E3215080409040E1F700C092
S11300D0000041E064E080E00E949F002FEF83ED88
S11300E090E3215080409040E1F700C00000DDCF54
S11300F070E0DB01A25FBE4F2C91813039F018F023
S1130100823039F008C0E3E2F0E005C0E6E2F0E056
S113011002C0E9E2F0E0413021F48181822B818345
S1130120089541110BC08181DB01AA5FBE4F9C91F0
S1130130982391839281822F892B82830895411180
S113014014C0E82FF0E0EE0FFF1FE050FF4FA08136
S1130150B18112969C911297E62FF0E0EA5FFE4F70
S11301608081892312968C930895E82FF0E0EE0F96
S1130170FF1FE050FF4FA081B18112969C9112970E
S1130180E62FF0E0E25FFE4F8081892B12968C937C
S11301900895E82FF0E0EE0FFF1FE050FF4F0190AD
S11301A0F081E02D9081E62FF0E0E25FFE4F808148
S11101B0982381E009F480E00895F894FFCFCD
S11301BE230026002900FEFDFBF7EFDFBF7F0102BF
S10901CE0408102040802B
S9030000FC
