:100000000C9434000C9451000C9451000C94510049
:100010000C9451000C9451000C9451000C9451001C
:100020000C9451000C9451000C9451000C9451000C
:100030000C9451000C9451000C9451000C945100FC
:100040000C9451000C9451000C9451000C945100EC
:100050000C9451000C9451000C9451000C945100DC
:100060000C9451000C94510011241FBECFEFD8E026
:10007000DEBFCDBF11E0A0E0B1E0E8E1F3E002C0F7
:1000800005900D92A631B107D9F721E0A6E1B1E0C4
:1000900001C01D92AD31B207E1F70E9409010C9435
:1000A0008A010C94000061E081E00E947601809357
:1000B000180162E081E00E9476018093160163E0FE
:1000C00081E00E9476018093170190911801913090
:1000D000A1F58130F1F441E065E080E00E944C013F
:1000E00041E064E080E00E944C0141E063E080E098
:1000F0000E944C0141E062E080E00E944C012FEB45
:1001000087E299E0215080409040E1F700C0000074
:10011000089540E065E080E00E944C0141E064E029
:1001200080E00E944C0141E063E080E00E944C01CD
:1001300041E062E080E00E944C0180911601813034
:10014000A1F440E065E080E00E944C0140E064E002
:1001500080E00E944C0141E063E080E00E944C019D
:1001600041E062E080E00E944C0180911701813003
:10017000A1F440E065E080E00E944C0140E064E0D2
:1001800080E00E944C0140E063E080E00E944C016E
:1001900041E062E080E00E944C01089541E065E0AA
:1001A00080E00E94250141E064E080E00E9425019A
:1001B00041E063E080E00E94250141E062E080E0F0
:1001C0000E94250140E061E081E00E94250140E0BD
:1001D00062E081E00E94250140E063E081E00E944E
:1001E000250141E065E080E00E944C0141E064E0CF
:1001F00080E00E944C0141E063E080E00E944C01FD
:1002000041E062E080E00E944C0108950E94CE002F
:10021000089510921C010E940601C1E080911C010A
:10022000882319F0853020F406C00E94530003C0D3
:10023000C0931C01F3CF80911C018F5F80931C0140
:10024000853060F310921C01E9CF70E0DB01A25F02
:10025000BE4F2C91813039F018F0823039F008C04F
:10026000E3E2F0E005C0E6E2F0E002C0E9E2F0E03F
:10027000413021F48181822B8183089541110BC08B
:100280008181DB01AA5FBE4F9C919823918392816B
:10029000822F892B82830895411114C0E82FF0E04A
:1002A000EE0FFF1FE050FF4FA081B18112969C918D
:1002B0001297E62FF0E0EA5FFE4F808189231296C5
:1002C0008C930895E82FF0E0EE0FFF1FE050FF4FF2
:1002D000A081B18112969C911297E62FF0E0E25F27
:1002E000FE4F8081892B12968C930895E82FF0E0C1
:1002F000EE0FFF1FE050FF4F0190F081E02D908145
:10030000E62FF0E0E25FFE4F8081982381E009F064
:0803100080E00895F894FFCF8E
:10031800230026002900FEFDFBF7EFDFBF7F010267
:06032800040810204080D3
:00000001FF
